:020000040800F2
:10000000000002209D670008ED0D0008F50D0008B6
:10001000FD0D0008050E00080D0E00080000000090
:10002000000000000000000000000000150E0008A5
:10003000230E000800000000310E00083F0E0008EB
:10004000F1670008F1670008F1670008F167000830
:10005000F1670008F1670008F1670008F167000820
:10006000F1670008F16700084B0E0008F16700080F
:10007000F1670008F1670008F1670008F167000800
:10008000F1670008F1670008F1670008F1670008F0
:10009000F1670008F1670008F1670008F1670008E0
:1000A000F1670008F1670008F1670008F1670008D0
:1000B000F1670008F1670008F1670008F1670008C0
:1000C000F1670008F1670008F1670008F1670008B0
:1000D000F1670008F1670008F1670008F1670008A0
:1000E000F1670008F167000800000000F1670008F0
:1000F000F1670008F1670008F1670008F167000880
:10010000F1670008F1670008F1670008F16700086F
:10011000F1670008F1670008F1670008F16700085F
:10012000F1670008F1670008F1670008F16700084F
:10013000F1670008F1670008F1670008F16700083F
:1001400000000000000000000000000000000000AF
:10015000F1670008F1670008F1670008F16700081F
:10016000F1670008F1670008F1670008F16700080F
:10017000F1670008F1670008F1670008F1670008FF
:10018000F1670008F1670008F1670008F1670008EF
:10019000F1670008F1670008F1670008F1670008DF
:1001A000F1670008F1670008F1670008F1670008CF
:1001B000F1670008F1670008F1670008F1670008BF
:1001C000F1670008F1670008F1670008F1670008AF
:1001D000F1670008F1670008F1670008F16700089F
:1001E000F1670008F1670008F1670008F16700088F
:1001F000F1670008F1670008F1670008F16700087F
:10020000F1670008F1670008F1670008F16700086E
:10021000F1670008F1670008F1670008F16700085E
:10022000F1670008F1670008F167000800000000AE
:10023000F1670008F167000800000000F16700089E
:10024000F1670008F1670008F1670008F16700082E
:10025000F1670008F1670008F1670008F16700081E
:10026000F1670008F1670008F1670008F16700080E
:10027000F1670008F1670008F1670008000000005E
:10028000F1670008F1670008F1670008000000004E
:0802900000000000F167000806
:1002A00053B94AB9002908BF00281CBF4FF0FF31DD
:1002B0004FF0FF3000F00CB8ADF1080C6DE904CE42
:1002C00006F098FADDF804E0DDE9022304B0704797
:1002D000704700BF034613F8012B002AFBD1181A00
:1002E000013870470000000000000000000000001E
:1002F00001F0FF01102A2BDB10F0070F08D010F8D7
:10030000013B013A8B422DD010F0070F42B3F6D1DA
:10031000F0B441EA012141EA014122F007047FF0F3
:1003200000070023F0E80256083C85EA010586EA4A
:10033000010685FA47F5A3FA87F586FA47F6A5FA86
:1003400087F68EB9EED1F0BC01F0FF0102F0070292
:1003500032B110F8013B013A83EA010313B1F8D13D
:100360000020704701387047002D06BF354603381E
:10037000073815F0010F07D1013015F4807F02BF57
:10038000013015F4C03F0130F0BC0138704700BFA8
:100390000348044B834202D0034B03B11847704714
:1003A0006000002060000020000000000548064BAF
:1003B0001B1AD90F01EBA301491002D0034B03B163
:1003C0001847704760000020600000200000000017
:1003D00010B5064C237843B9FFF7DAFF044B13B18D
:1003E0000448AFF300800123237010BD600000209B
:1003F00000000000CC71000808B5054B1BB1054991
:100400000548AFF30080BDE80840FFF7CFBF00BF4D
:100410000000000064000020CC7100080244034684
:10042000934200D1704703F8011BF9E770B50D4BFB
:100430000D4D5B1B9C100026A64209D106F0C6FE9E
:100440000A4D0B4B5B1B9C100026A64205D170BDCC
:1004500055F8043B98470136EEE755F8043B9847BA
:100460000136F2E7EC720008EC720008EC7200084A
:10047000F07200087047704738B50546002941D032
:1004800051F8043C0C1F002BB8BFE41800F0E0F852
:100490001D4A136833B9636014602846BDE83840CC
:1004A00000F0DCB8A34208D9206821188B4201BFB4
:1004B00019685B6809182160EDE71A465B680BB1A3
:1004C000A342FAD911685018A0420BD12068014408
:1004D000501883421160E0D118685B68536008448B
:1004E0001060DAE702D90C232B60D6E720682118C8
:1004F0008B4204BF19685B68636004BF0918216000
:100500005460CAE738BD00BFC001002070B50F4E6F
:100510000C463168054611B900F0A6F83060214656
:10052000284600F0A1F8431C03D14FF0FF342046C9
:1005300070BDC41C24F00304A042F8D0211A284640
:1005400000F092F80130F2D1EFE700BFBC010020CB
:100550002DE9F843CD1C25F0030508350C2D38BFD7
:100560000C25002D064601DBA94204D90C2333607B
:100570000020BDE8F883DFF8D48000F069F8D8F8EF
:1005800000301C4644BB29463046FFF7BFFF431CE2
:10059000044658D1D8F800402746002F43D1002CFC
:1005A0004BD023683946304604EB030900F05CF871
:1005B000814542D121686D1A29463046FFF7A6FFD2
:1005C00001303AD023682B442360D8F800305A68B1
:1005D00062BBC8F800700FE02268521B20D40B2ABF
:1005E00017D96119A342256018BF5960636808BF15
:1005F000C8F8001062514B60304600F02FF804F14B
:100600000B00231D20F00700C21A1CBF1B1AA350A9
:10061000AFE76268A3420CBFC8F800205A60EBE75E
:1006200023466468AEE73C467F68B6E71A465B68D7
:10063000A342FBD100235360DEE70C233360304636
:1006400000F00CF894E70560D6E700BFC001002079
:100650000148FFF70FBF00BFB80100200148FFF7B6
:100660000ABF00BFB801002038B5064D002304467C
:1006700008462B6006F05CF8431C02D12B6803B1DE
:10068000236038BDB401002080B485B000AF78602D
:100690007B6803F40003002B04D07B6843F07F43A6
:1006A000FB6001E07B68FB60FB6807EE903AF8EEC8
:1006B000E77A9FED0A7A27EE877ADFED096AC7EEBF
:1006C000267AC7ED027ABB6807EE903AB0EE670A69
:1006D0001437BD465DF8047B704700BF6F120340BE
:1006E0000000004B80B485B000AF78607B68DB0D04
:1006F000FB60FB68002B04D0FB6840F2FF129342C2
:1007000001D1012300E00023DBB218461437BD46B7
:100710005DF8047B7047000080B594B002AF0346DB
:10072000FB71FB7987F8443007F1400207F144017F
:100730006423009301230D4804F0B2F90346002B13
:1007400001D000F04DFB97F844301A4697F840303E
:1007500007F10C00064906F0C9F907F10C03184629
:1007600000F07CFA00BF4837BD4680BD180200206B
:10077000E471000880B586B002AF0346FB71FB79D7
:100780003B7307F1080207F10C0164230093012376
:10079000064804F085F90346002B01D000F020FB49
:1007A0003B7A18461037BD4680BD00BF18020020B6
:1007B00080B500AF00F0E8FA03F08CFF00F04CF8D1
:1007C00000F0C4F900F0C4F800F002F900F072F98A
:1007D0001E4800F043FA012004F00EF80022102118
:1007E0001B4803F009FF0620FFF796FF012004F0E5
:1007F00003F84320FFF790FF0020FFF78DFFD42080
:10080000FFF78AFF1020FFF787FF0020FFF784FF24
:10081000012003F0F1FF2320FFF77EFF012003F00A
:10082000EBFF0820FFF778FF012003F0E5FF01222E
:100830001021074803F0E0FE012003F0DDFF05482A
:1008400000F00CFA00F082F900BFFDE7007200082A
:10085000000402581072000880B59CB000AF07F188
:1008600024034C2200211846FFF7D8FD3B1D20220F
:1008700000211846FFF7D2FD022003F0F1FE00230D
:100880003B60314BDB6A304A23F00103D3622E4BCD
:10089000DB6A03F001033B602C4B9B6923F440436C
:1008A0002A4A43F480439361284B9B6903F44043F5
:1008B0003B603B6800BF254B9B6903F40053B3F5D5
:1008C000005FF8D102237B6201233B6340237B63FB
:1008D0000223BB640023FB6404233B650A237B657E
:1008E0000223BB650223FB6502233B660C237B6668
:1008F0000223BB660023FB6607F12403184600F0C1
:10090000B9FE0346002B01D000F06AFA3F237B605A
:100910000023BB600023FB6000233B6100237B615D
:100920004023BB610023FB6100233B623B1D01218F
:10093000184601F0F9FA0346002B01D000F050FAF6
:1009400000BF7037BD4680BD000400580048025803
:1009500080B500AF1B4B1C4A1A601A4B1B4A5A60E9
:10096000184B00229A60174B0122DA60154B0022C7
:100970001A61144B00225A61124B00229A61114BEA
:100980000022DA610F4B00221A620E4800F03EFD91
:100990000346002B01D000F023FA0021094800F0A3
:1009A000D1FD0346002B01D000F01AFA00210548C2
:1009B00000F013FE0346002B01D000F011FA00BF37
:1009C00080BD00BFC401002000540040BB7C70000B
:1009D00080B586B000AF344B344A1A60324B4FF4C6
:1009E00080025A60304B00229A602F4B0722DA6057
:1009F0002D4B00221A612C4B4FF080725A612A4B0A
:100A00004FF080629A61284B4FF08042DA61264BAA
:100A100000221A62244B00225A62234B00229A625F
:100A2000214B0722DA62204B00225A631E4B002220
:100A3000DA631D4B4FF000425A651B4803F00CFF70
:100A40000346002B01D000F0CBF93B1D00221A60B9
:100A50005A609A60DA601A6110237B600123BB60E0
:100A60000123FB6002233B613B1D1946104803F044
:100A700013FC012210210E4803F0BEFD20237B60F1
:100A80000123BB600123FB6002233B613B1D194630
:100A9000074803F001FC01222021054803F0ACFDCA
:100AA00000BF1837BD4680BD18020020003001404D
:100AB0000004025880B500AF224B234A1A60214B34
:100AC0004FF4E1325A601F4B00229A601D4B002206
:100AD000DA601C4B00221A611A4B0C225A61194B26
:100AE00000229A61174B0022DA61164B00221A622B
:100AF000144B00225A62134B00229A62114804F0F0
:100B0000F2FB0346002B01D000F06AF900210D48EA
:100B100005F08BFC0346002B01D000F061F90021A9
:100B2000084805F0C0FC0346002B01D000F058F93E
:100B3000044805F03FFC0346002B01D000F050F9BB
:100B400000BF80BDA0020020004C004080B58AB0EC
:100B500000AF07F1140300221A605A609A60DA604D
:100B60001A613B4BD3F8E030394A43F01003C2F826
:100B7000E030374BD3F8E03003F010033B613B69C2
:100B8000334BD3F8E030324A43F08003C2F8E03010
:100B90002F4BD3F8E03003F08003FB60FB682C4B55
:100BA000D3F8E0302A4A43F00103C2F8E030284B82
:100BB000D3F8E03003F00103BB60BB68244BD3F8EB
:100BC000E030234A43F00803C2F8E030204BD3F86A
:100BD000E03003F008037B607B681D4BD3F8E03006
:100BE0001B4A43F00203C2F8E030194BD3F8E0305F
:100BF00003F002033B603B6800220821154803F024
:100C0000FBFC08237B610123BB610023FB61002304
:100C10003B6207F1140319460E4803F03DFB102315
:100C20007B614FF48813BB610123FB6107F114035F
:100C30001946094803F030FB002201210A2000F088
:100C400038FB0A2000F04FFB00BF2837BD4680BDAF
:100C50000044025800100258000C025880B582B0BF
:100C600000AF78607868FFF735FB03469AB26423DB
:100C70007968034804F087FB00BF0837BD4680BD94
:100C8000A002002080B59AB002AF0346FB80FB882B
:100C9000102B6AD13748FFF7E1FF002210213648B8
:100CA00003F0AAFC0023BB65FF20FFF763FD0346AA
:100CB00087F85730FF20FFF75DFD034687F8563071
:100CC000FF20FFF757FD034687F8553097F8573058
:100CD0001A0497F856301B021A4397F855301343FD
:100CE000BB6501221021244803F086FCB86DFFF794
:100CF000F9FC0346002B35D0B86DFFF7C5FC87ED36
:100D0000140AD7ED147AFDEEE77A17EE903AFB64F9
:100D1000FB6C07EE903AF8EEE77A97ED147A77EEEF
:100D2000677A9FED167A67EE877AFDEEE77A17EE1F
:100D3000903AFB65FB6D002B02DAFB6D5B42FB65B5
:100D4000BA6D07F10C00FB6D0193FB6C0093134629
:100D5000BA6D0B4905F0CAFE07F10C031846FFF700
:100D60007DFF02E00748FFF779FF00BF6037BD460F
:100D700080BD00BF28720008000402580024744996
:100D8000347200086472000880B584B000AF3B463E
:100D900000221A605A609A60DA6000F0BFFA0123FC
:100DA0003B7000237B7000237B601F233B728723F3
:100DB0007B720023BB720023FB7201233B73012370
:100DC0007B730023BB730023FB733B46184600F084
:100DD000DDFA042000F0BAFA00BF1037BD4680BD2E
:100DE00080B400AF72B600BF00BFFDE780B400AFB3
:100DF00000BFFDE780B400AF00BFFDE780B400AFE7
:100E000000BFFDE780B400AF00BFFDE780B400AFD6
:100E100000BFFDE780B400AF00BFBD465DF8047BB6
:100E2000704780B400AF00BFBD465DF8047B7047DB
:100E300080B400AF00BFBD465DF8047B704780B54D
:100E400000AF03F0B9FC00BF80BD80B500AF10203B
:100E500003F0EBFB00BF80BD80B483B000AF0A4B52
:100E6000D3F8F430084A43F00203C2F8F430064BDA
:100E7000D3F8F43003F002037B607B6800BF0C37CB
:100E8000BD465DF8047B70470044025880B5BAB097
:100E900000AF786007F1D40300221A605A609A60AC
:100EA000DA601A6107F11003C02200211846FFF72B
:100EB000B5FA7B681B68264A934245D14FF0080279
:100EC0004FF00003C7E904230023C7F8943007F16B
:100ED0001003184601F0B4FB0346002B01D0FFF7C6
:100EE0007FFF1C4BD3F8E0301A4A43F00203C2F8EC
:100EF000E030184BD3F8E03003F00203FB60FB68EE
:100F0000C023C7F8D4301223C7F8D8300023C7F85D
:100F1000DC300023C7F8E0300423C7F8E43007F1E1
:100F2000D40319460C4803F0B7F90A4BD3F8E8305C
:100F3000084A43F40013C2F8E830064BD3F8E8300F
:100F400003F40013BB60BB6800BFE837BD4680BD3B
:100F500000540040004402580004025880B5BAB062
:100F600000AF786007F1D40300221A605A609A60DB
:100F7000DA601A6107F11003C02200211846FFF75A
:100F80004DFA7B681B68264A934244D14FF4805245
:100F90004FF00003C7E9042300233B6707F1100368
:100FA000184601F04DFB0346002B01D0FFF718FF58
:100FB0001C4BD3F8F0301B4A43F48053C2F8F03096
:100FC000184BD3F8F03003F48053FB60FB68154BEB
:100FD000D3F8E030134A43F00103C2F8E030114B7C
:100FE000D3F8E03003F00103BB60BB68E023C7F82F
:100FF000D4300223C7F8D8300023C7F8DC300023F0
:10100000C7F8E0300523C7F8E43007F1D4031946E8
:10101000054803F041F900BFE837BD4680BD00BF79
:1010200000300140004402580000025880B5BAB0B8
:1010300000AF786007F1D40300221A605A609A600A
:10104000DA601A6107F11003C02200211846FFF789
:10105000E5F97B681B68264A934245D14FF00202AE
:101060004FF00003C7E904230023C7F8883007F1D5
:101070001003184601F0E4FA0346002B01D0FFF7F5
:10108000AFFE1C4BD3F8E8301A4A43F40023C2F8F1
:10109000E830184BD3F8E83003F40023FB60FB681A
:1010A000144BD3F8E030134A43F00103C2F8E030A8
:1010B000104BD3F8E03003F00103BB60BB6803239F
:1010C000C7F8D4300223C7F8D8300023C7F8DC3083
:1010D0000023C7F8E0300823C7F8E43007F1D40351
:1010E0001946054803F0D8F800BFE837BD4680BD73
:1010F000004C0040004402580000025880B485B003
:1011000000AF78607B6803F00703FB600B4BDB6884
:10111000BB60BA684FF6FF031340BB60FB681A025E
:10112000BB681A43064B1343BB60044ABB68D360D9
:1011300000BF1437BD465DF8047B704700ED00E04A
:101140000000FA0580B400AF044BDB681B0A03F013
:1011500007031846BD465DF8047B704700ED00E0CC
:1011600080B483B000AF0346FB80B7F90630002B94
:101170000BDBFB8803F01F020749B7F906305B0958
:10118000012000FA02F241F8232000BF0C37BD46CF
:101190005DF8047B704700BF00E100E080B483B0DD
:1011A00000AF03463960FB80B7F90630002B0ADB3D
:1011B0003B68DAB20C49B7F906301201D2B20B44DF
:1011C00083F800230AE03B68DAB20849FB8803F0A1
:1011D0000F03043B1201D2B20B441A7600BF0C3746
:1011E000BD465DF8047B704700E100E000ED00E0E3
:1011F00080B489B000AFF860B9607A60FB6803F032
:101200000703FB61FB69C3F10703042B28BF042319
:10121000BB61FB690433062B02D9FB69033B00E089
:1012200000237B614FF0FF32BB6902FA03F3DA431C
:10123000BB681A407B699A404FF0FF317B6901FA25
:1012400003F3D9437B680B40134318462437BD464C
:101250005DF8047B7047000080B582B000AF786015
:101260007B68013BB3F1807F01D301230FE00A4A81
:101270007B68013B53600F214FF0FF30FFF78EFF7B
:10128000054B00229A60044B07221A60002318467F
:101290000837BD4680BD00BF10E000E080B582B0D9
:1012A00000AF78607868FFF729FF00BF0837BD46B8
:1012B00080BD80B586B000AF0346B9607A60FB811F
:1012C000FFF740FF78617A68B9687869FFF790FFA7
:1012D0000246B7F90E3011461846FFF75FFF00BF10
:1012E0001837BD4680BD80B582B000AF0346FB8095
:1012F000B7F906301846FFF733FF00BF0837BD4681
:1013000080BD80B582B000AF78607868FFF7A4FF39
:10131000034618460837BD4680BD000080B400AFC4
:10132000BFF35F8F00BF074B5B6A064A23F480332D
:101330005362054B00225A6000BFBD465DF8047B36
:10134000704700BF00ED00E090ED00E080B483B096
:1013500000AF78600B4A7B6843F0010353600A4B8F
:101360005B6A094A43F480335362BFF34F8F00BF77
:10137000BFF36F8F00BF00BF0C37BD465DF8047B25
:10138000704700BF90ED00E000ED00E080B483B056
:1013900000AF78607B685A781B4B9A601A4B1B69C8
:1013A000194A23F001031361174A7B685B68D36015
:1013B0007B681B7B1A077B68DB7A1B061A437B68FA
:1013C0009B7ADB041A437B685B7B9B041A437B6834
:1013D0009B7B5B041A437B68DB7B1B041A437B68A3
:1013E0005B7A1B021A437B681B7A5B0013437A68A3
:1013F00012781146044A0B43136100BF0C37BD46F7
:101400005DF8047B704700BF90ED00E080B582B0CE
:1014100000AF78607B68002B01D101238BE07B68F3
:1014200093F84130DBB2002B06D17B68002283F8B1
:1014300040207868FFF72AFD7B68242283F841204A
:101440007B681B681A687B681B6822F001021A60BF
:101450007B685A687B681B6822F070621A617B683F
:101460001B689A687B681B6822F400429A607B685C
:10147000DB68012B07D17B689A687B681B6842F4A4
:1014800000429A6006E07B689A687B681B6842F4B9
:1014900004429A607B68DB68022B08D17B681B687A
:1014A0005A687B681B6842F400625A6007E07B68F8
:1014B0001B685A687B681B6822F400625A607B686C
:1014C0001B6859687B681A681D4B0B4353607B6827
:1014D0001B68DA687B681B6822F40042DA607B686C
:1014E0001A697B685B6942EA03017B689B691A029F
:1014F0007B681B680A43DA607B68D9697B681A6A73
:101500007B681B680A431A607B681B681A687B68E3
:101510001B6842F001021A607B6800225A647B68F3
:10152000202283F841207B6800221A637B68002216
:1015300083F84220002318460837BD4680BD00BF0F
:101540000080000280B483B000AF786039607B68AF
:1015500093F84130DBB2202B38D17B6893F84030D0
:10156000012B01D1022332E07B68012283F8402065
:101570007B68242283F841207B681B681A687B689B
:101580001B6822F001021A607B681B681A687B687E
:101590001B6822F480521A607B681B6819687B689C
:1015A0001B683A680A431A607B681B681A687B6884
:1015B0001B6842F001021A607B68202283F84120F8
:1015C0007B68002283F84020002300E002231846B5
:1015D0000C37BD465DF8047B704780B485B000AF22
:1015E000786039607B6893F84130DBB2202B39D1C9
:1015F0007B6893F84030012B01D1022333E07B68F4
:10160000012283F840207B68242283F841207B68F4
:101610001B681A687B681B6822F001021A607B68ED
:101620001B681B68FB60FB6823F47063FB603B680E
:101630001B02FA681343FB607B681B68FA681A6038
:101640007B681B681A687B681B6842F001021A609D
:101650007B68202283F841207B68002283F84020A9
:10166000002300E0022318461437BD465DF8047BD2
:101670007047000080B58CB000AF78607B68002BAD
:1016800002D1012300F048BC7B681B6803F0010312
:10169000002B00F08880994B1B6903F03803FB6234
:1016A000964B9B6ABB62FB6A102B07D0FB6A182B18
:1016B00011D1BB6A03F00303022B0CD18F4B1B68C3
:1016C00003F40033002B6DD07B685B68002B69D17D
:1016D000012300F021BC7B685B68B3F5803F06D135
:1016E000864B1B68854A43F4803313602EE07B6889
:1016F0005B68002B0CD1814B1B68804A23F480333C
:1017000013607E4B1B687D4A23F4802313601DE029
:101710007B685B68B3F5A02F0CD1784B1B68774AC8
:1017200043F480231360754B1B68744A43F4803381
:1017300013600BE0714B1B68704A23F48033136015
:101740006E4B1B686D4A23F4802313607B685B68D3
:10175000002B13D003F044F8786208E003F040F85F
:1017600002467B6AD31A642B01D90323D4E3634B6B
:101770001B6803F40033002BF0D014E003F030F8C2
:10178000786208E003F02CF802467B6AD31A642BD7
:1017900001D90323C0E3594B1B6803F40033002B2A
:1017A000F0D100E000BF7B681B6803F00203002B50
:1017B00000F0CA80514B1B6903F038033B624F4B6A
:1017C0009B6AFB613B6A002B07D03B6A182B56D102
:1017D000FB6903F00303002B51D1484B1B6803F056
:1017E0000403002B05D07B68DB68002B01D10123AB
:1017F00092E3424B1B6823F019027B68DB683F4988
:1018000013430B6002F0ECFF786208E002F0E8FF9F
:1018100002467B6AD31A022B01D903237CE3374BA0
:101820001B6803F00403002BF0D003F009F8034613
:1018300041F20302934217D87B681B69402B08D101
:101840002E4B5B6823F47C332C4A43F40033536003
:101850007AE02A4B5B6823F47C327B681B691B03AC
:10186000264913434B606FE0244B5B6823F0FE4234
:101870007B681B691B06214913434B6064E07B684E
:10188000DB68002B47D01D4B1B6823F019027B68D7
:10189000DB681A4913430B6002F0A2FF786208E08C
:1018A00002F09EFF02467B6AD31A022B01D9032362
:1018B00032E3124B1B6803F00403002BF0D002F05C
:1018C000BFFF034641F20302934219D87B681B69AC
:1018D000402B08D1094B5B6823F47C33074A43F45F
:1018E0000033536030E0054B5B6823F47C327B6847
:1018F0001B691B03014913434B6025E00044025858
:101900009A4B5B6823F0FE427B681B691B06974974
:1019100013434B6018E0954B1B68944A23F0010376
:10192000136002F05DFF786208E002F059FF0246A2
:101930007B6AD31A022B01D90323EDE28B4B1B6880
:1019400003F00403002BF0D17B681B6803F0100345
:10195000002B00F0A980854B1B6903F03803BB61A5
:10196000824B9B6A7B61BB69082B07D0BB69182B34
:101970003AD17B6903F00303012B35D17B4B1B6804
:1019800003F48073002B05D07B68DB69802B01D0CA
:101990000123C1E202F054FF034641F203029342E5
:1019A00017D87B681B6A202B08D1704B5B6823F02B
:1019B000F8436E4A43F08043536075E06B4B5B68BD
:1019C00023F0F8427B681B6A9B06684913434B600F
:1019D0006AE0664BDB6823F07C527B681B6A1B065F
:1019E00062491343CB605FE07B68DB69002B42D028
:1019F0005E4B1B685D4A43F08003136002F0F0FE0B
:101A0000786208E002F0ECFE02467B6AD31A022BF1
:101A100001D9032380E2554B1B6803F48073002B2C
:101A2000F0D002F00DFF034641F20302934217D8B3
:101A30007B681B6A202B08D14C4B5B6823F0F84372
:101A40004A4A43F0804353602EE0484B5B6823F0E2
:101A5000F8427B681B6A9B06444913434B6023E0B2
:101A6000424BDB6823F07C527B681B6A1B063F49B4
:101A70001343CB6018E03D4B1B683C4A23F08003C6
:101A8000136002F0ADFE786208E002F0A9FE0246A3
:101A90007B6AD31A022B01D903233DE2334B1B6827
:101AA00003F48073002BF0D17B681B6803F00803FC
:101AB000002B36D07B685B69002B19D02B4B5B6FFA
:101AC0002A4A43F00103536702F08AFE786208E075
:101AD00002F086FE02467B6AD31A022B01D9032349
:101AE0001AE2224B5B6F03F00203002BF0D018E0E8
:101AF0001E4B5B6F1D4A23F00103536702F070FE1B
:101B0000786208E002F06CFE02467B6AD31A022B70
:101B100001D9032300E2154B5B6F03F00203002B96
:101B2000F0D17B681B6803F02003002B39D07B6861
:101B30009B69002B1CD00D4B1B680C4A43F480534F
:101B4000136002F04DFE786208E002F049FE0246A2
:101B50007B6AD31A022B01D90323DDE1034B1B68F7
:101B600003F40053002BF0D01BE000BF00440258E8
:101B70009B4B1B689A4A23F48053136002F030FE9B
:101B8000786208E002F02CFE02467B6AD31A022B30
:101B900001D90323C0E1924B1B6803F40053002BCF
:101BA000F0D17B681B6803F00403002B00F08180F8
:101BB0008C4B1B688B4A43F48073136002F010FE59
:101BC000786208E002F00CFE02467B6AD31A642BAE
:101BD00001D90323A0E1834B1B6803F48073002B1E
:101BE000F0D07B689B68012B06D17D4B1B6F7C4A34
:101BF00043F0010313672DE07B689B68002B0CD139
:101C0000774B1B6F764A23F001031367744B1B6FEE
:101C1000734A23F0040313671CE07B689B68052B61
:101C20000CD16F4B1B6F6E4A43F0040313676C4B70
:101C30001B6F6B4A43F0010313670BE0684B1B6F8C
:101C4000674A23F001031367654B1B6F644A23F057
:101C5000040313677B689B68002B15D002F0C0FD5E
:101C600078620AE002F0BCFD02467B6AD31A41F2B8
:101C70008832934201D903234EE1594B1B6F03F085
:101C80000203002BEED014E002F0AAFD78620AE015
:101C900002F0A6FD02467B6AD31A41F288329342D3
:101CA00001D9032338E14E4B1B6F03F00203002BD5
:101CB000EED17B685B6A002B00F02D81484B1B69DD
:101CC00003F03803182B00F0BD807B685B6A022BA1
:101CD00040F09E80424B1B68414A23F080731360A2
:101CE00002F07EFD786208E002F07AFD02467B6A2F
:101CF000D31A022B01D903230EE1394B1B6803F0E1
:101D00000073002BF0D1364B9A6A374B13407A6838
:101D1000916A7A68D26A12010A43314913438B628D
:101D20007B681B6B013BC3F308027B685B6B013B69
:101D30005B029BB21A437B689B6B013B1B0403F461
:101D4000FE031A437B68DB6B013B1B0603F0FE437B
:101D5000234913430B63224BDB6A214A23F001031F
:101D6000D3621F4B5A6B214B13407A68926CD2009E
:101D70001B4913434B631A4BDB6A23F00C027B684D
:101D80001B6C17491343CB62154BDB6A23F002022D
:101D90007B685B6C12491343CB62114BDB6A104AC0
:101DA00043F48033D3620E4BDB6A0D4A43F40033B5
:101DB000D3620B4BDB6A0A4A43F48023D362084B9D
:101DC000DB6A074A43F00103D362054B1B68044AF0
:101DD00043F08073136002F003FD786211E000BFEE
:101DE00000440258004802580CFCFFFF0700FFFFA8
:101DF00002F0F6FC02467B6AD31A022B01D90323B8
:101E00008AE0474B1B6803F00073002BF0D082E0A0
:101E1000434B1B68424A23F08073136002F0E0FCDE
:101E2000786208E002F0DCFC02467B6AD31A022BDF
:101E300001D9032370E03A4B1B6803F00073002BB9
:101E4000F0D168E0364B9B6A3B61354B1B6BFB6006
:101E50007B685B6A012B31D03B6903F003027B682E
:101E60009B6A9A422AD13B691B0903F03F027B68B7
:101E7000DB6A9A4222D1FB68C3F308027B681B6BC2
:101E8000013B9A421AD1FB685B0A03F07F027B6830
:101E90005B6B013B9A4211D1FB681B0C03F07F0284
:101EA0007B689B6B013B9A4208D1FB681B0E03F0D9
:101EB0007F027B68DB6B013B9A4201D001232BE060
:101EC000174B5B6BDB08C3F30C033B617B689B6CBC
:101ED0003A699A421FD0124BDB6A114A23F0010380
:101EE000D36202F07DFC786200BF02F079FC02460A
:101EF0007B6A9342F9D00A4B5A6B0A4B13407A68BB
:101F0000926CD200064913434B63054BDB6A044ACB
:101F100043F00103D362002318463037BD4680BD2D
:101F2000004402580700FFFF80B586B000AF78601C
:101F300039607B68002B01D101239CE18A4B1B682F
:101F400003F00F033A689A4210D9874B1B6823F0BD
:101F50000F0285493B6813430B60834B1B6803F0FA
:101F60000F033A689A4201D0012384E17B681B6821
:101F700003F00403002B10D07B681A697B4B9B692C
:101F800003F070039A4208D9784B9B6923F07002E2
:101F90007B681B69754913438B617B681B6803F081
:101FA0000803002B10D07B685A69704BDB6903F083
:101FB00070039A4208D96D4BDB6923F070027B688D
:101FC0005B696A491343CB617B681B6803F01003AC
:101FD000002B10D07B689A69644BDB6903F4E063E3
:101FE0009A4208D9614BDB6923F4E0627B689B6904
:101FF0005E491343CB617B681B6803F02003002B11
:1020000010D07B68DA69594B1B6A03F070039A425F
:1020100008D9564B1B6A23F070027B68DB69534971
:1020200013430B627B681B6803F00203002B10D084
:102030007B68DA684D4B9B6903F00F039A4208D91D
:102040004A4B9B6923F00F027B68DB6847491343C7
:102050008B617B681B6803F00103002B55D0434B59
:102060009B6923F470627B689B68404913438B61D2
:102070007B685B68022B07D13C4B1B6803F4003381
:10208000002B21D10123F6E07B685B68032B07D18D
:10209000364B1B6803F00073002B15D10123EAE0D7
:1020A0007B685B68012B07D1304B1B6803F480739E
:1020B000002B09D10123DEE02C4B1B6803F0040345
:1020C000002B01D10123D6E0284B1B6923F0070226
:1020D0007B685B68254913430B6102F081FB7861E3
:1020E0000AE002F07DFB02467B69D31A41F2883296
:1020F000934201D90323BEE01C4B1B6903F0380255
:102100007B685B68DB009A42EBD17B681B6803F05D
:102110000203002B10D07B68DA68144B9B6903F034
:102120000F039A4208D2114B9B6923F00F027B6880
:10213000DB680E4913438B610B4B1B6803F00F03E5
:102140003A689A4214D2084B1B6823F00F020649E2
:102150003B6813430B60044B1B6803F00F033A68A2
:102160009A4205D0012386E0002000520044025824
:102170007B681B6803F00403002B10D07B681A698E
:102180003F4B9B6903F070039A4208D23C4B9B691A
:1021900023F070027B681B69394913438B617B68AC
:1021A0001B6803F00803002B10D07B685A69344B7E
:1021B000DB6903F070039A4208D2314BDB6923F0EC
:1021C00070027B685B692E491343CB617B681B6897
:1021D00003F01003002B10D07B689A69284BDB6951
:1021E00003F4E0639A4208D2254BDB6923F4E062F2
:1021F0007B689B6922491343CB617B681B6803F0B2
:102200002003002B10D07B68DA691D4B1B6A03F09A
:1022100070039A4208D21A4B1B6A23F070027B6843
:10222000DB69174913430B6200F034F80246144B84
:102230009B691B0A03F00F031249CB5C03F01F03D9
:1022400022FA03F33B610E4B9B6903F00F030D4A27
:10225000D35C03F01F033A6922FA03F30A4A1360BE
:102260000A4A3B6913600A4B1B68184602F06EFA73
:102270000346FB73FB7B18461837BD4680BD00BF85
:1022800000440258A07200085C00002058000020A2
:102290005000002080B489B000AFB34B1B6903F03D
:1022A0003803182B00F2558101A252F823F000BF29
:1022B000152300085325000853250008532500085E
:1022C000532500085325000853250008532500080E
:1022D0003B23000853250008532500085325000818
:1022E00053250008532500085325000853250008EE
:1022F00041230008532500085325000853250008F2
:1023000053250008532500085325000853250008CD
:1023100047230008944B1B6803F02003002B09D0CF
:10232000914B1B68DB0803F00303904A22FA03F386
:10233000BB6111E18D4BBB610EE18D4BBB610BE1CC
:102340008C4BBB6108E1884B9B6A03F003037B6104
:10235000854B9B6A1B0903F03F033B61824BDB6AA1
:1023600003F00103FB60804B5B6BDB08C3F30C03E2
:10237000FA6802FB03F307EE903AF8EE677AC7EDCE
:10238000027A3B69002B00F0E1807B69022B00F0B0
:1023900083807B69022B00F2A1807B69002B03D034
:1023A0007B69012B56D099E06F4B1B6803F020032B
:1023B000002B2DD06C4B1B68DB0803F003036B4A2A
:1023C00022FA03F37B607B6807EE903AF8EE676AC7
:1023D0003B6907EE903AF8EE677A86EEA77A624B91
:1023E0001B6BC3F3080307EE903AF8EE676A97EDAC
:1023F000026ADFED615AC6EE257A76EEA77AF7EE2D
:10240000006A77EEA67A67EE277AC7ED077A87E04B
:102410003B6907EE903AF8EE677ADFED586A86EE90
:10242000A77A514B1B6BC3F3080307EE903AF8EE03
:10243000676A97ED026ADFED505AC6EE257A76EEAE
:10244000A77AF7EE006A77EEA67A67EE277AC7EDED
:10245000077A65E03B6907EE903AF8EE677ADFEDC0
:10246000486A86EEA77A404B1B6BC3F3080307EE5E
:10247000903AF8EE676A97ED026ADFED3F5AC6EED2
:10248000257A76EEA77AF7EE006A77EEA67A67EEFF
:10249000277AC7ED077A43E03B6907EE903AF8EEFA
:1024A000677ADFED386A86EEA77A2F4B1B6BC3F392
:1024B000080307EE903AF8EE676A97ED026ADFEDDF
:1024C0002E5AC6EE257A76EEA77AF7EE006A77EEF8
:1024D000A67A67EE277AC7ED077A21E03B6907EE17
:1024E000903AF8EE677ADFED266A86EEA77A1E4B01
:1024F0001B6BC3F3080307EE903AF8EE676A97ED9B
:10250000026ADFED1D5AC6EE257A76EEA77AF7EE5F
:10251000006A77EEA67A67EE277AC7ED077A00BFE2
:10252000114B1B6B5B0A03F07F0301333B603B687D
:1025300007EE903AB8EE677AD7ED076AC6EE877A6B
:10254000FCEEE77A17EE903ABB6105E00023BB6131
:1025500002E0074BBB6100BFBB6918462437BD468C
:102560005DF8047B704700BF004402580090D00320
:1025700000093D0040787D01000000460024744CB5
:102580000024744A20BCBE4B80B582B000AFFFF778
:1025900081FE0246104B9B691B0A03F00F030F4993
:1025A000CB5C03F01F0322FA03F37B600A4B9B69A9
:1025B00003F00F03094AD35C03F01F037A6822FA81
:1025C00003F3074A1360074A7B681360044B1B68D8
:1025D00018460837BD4680BD00440258A072000866
:1025E0005C0000205800002080B500AFFFF7CCFF52
:1025F0000246064BDB691B0903F007030449CB5C69
:1026000003F01F0322FA03F3184680BD004402586A
:10261000A072000880B500AFFFF7B6FF0246064B78
:10262000DB691B0A03F007030449CB5C03F01F03BB
:1026300022FA03F3184680BD00440258A072000835
:102640002DE9B04FCAB000AFC7F81401002387F8D6
:102650002731002387F82631D7F81431D3E9002336
:1026600002F00064002554EA050349D0D7F814317C
:102670009B6EB3F5401F2FD0B3F5401F28D8B3F59C
:10268000001F1AD0B3F5001F22D8002B03D0B3F5DA
:10269000801F07D01CE0B84BDB6AB74A43F4003315
:1026A000D3621AE0D7F8143108330221184601F03A
:1026B0008FFC034687F827310FE0D7F81431283311
:1026C0000221184601F036FD034687F8273104E061
:1026D000012387F8273100E000BF97F82731002B4E
:1026E0000AD1A54B1B6D23F44011D7F814319B6E12
:1026F000A14A0B43136503E097F8273187F8263189
:10270000D7F81431D3E9002302F480784FF00009A0
:1027100058EA090347D0D7F814319B6D042B2AD807
:1027200001A252F823F000BF3D2700084B27000804
:10273000612700087F2700087F2700088E4BDB6A8F
:102740008D4A43F40033D3621AE0D7F814310833CA
:102750000021184601F03CFC034687F827310FE0C2
:10276000D7F8143128330021184601F0E3FC034662
:1027700087F8273104E0012387F8273100E000BF04
:1027800097F82731002B0AD17B4B1B6D23F00701F3
:10279000D7F814319B6D784A0B43136503E097F823
:1027A000273187F82631D7F81431D3E9002302F412
:1027B000007A4FF0000B5AEA0B034CD0D7F81431D3
:1027C000DB6DB3F5807F30D0B3F5807F29D8C02B87
:1027D0002DD0C02B25D8802B18D0802B21D8002BB2
:1027E00002D0402B07D01CE0634BDB6A624A43F403
:1027F0000033D3621CE0D7F81431083300211846A7
:1028000001F0E6FB034687F8273111E0D7F81431D1
:1028100028330021184601F08DFC034687F8273144
:1028200006E0012387F8273102E000BF00E000BF87
:1028300097F82731002B0AD14F4B1B6D23F4E07121
:10284000D7F81431DB6D4C4A0B43136503E097F85E
:10285000273187F82631D7F81431D3E9002302F461
:102860008063C7F808310023C7F80C31D7E942125A
:102870000B46134353D0D7F81431D3F8A830B3F52F
:10288000000F35D0B3F5000F2ED8B3F5C00F31D0FF
:10289000B3F5C00F28D8B3F5800F1AD0B3F5800F69
:1028A00022D8002B03D0B3F5001F07D01CE0324B19
:1028B000DB6A314A43F40033D3621CE0D7F81431A9
:1028C00008330021184601F083FB034687F82731BF
:1028D00011E0D7F8143128330021184601F02AFC02
:1028E000034687F8273106E0012387F8273102E005
:1028F00000BF00E000BF97F82731002B0BD11E4B23
:102900009B6D23F46001D7F81431D3F8A8301A4A2C
:102910000B43936503E097F8273187F82631D7F802
:102920001431D3E9002302F40063C7F80031002317
:10293000C7F80431D7E940120B46134356D0D7F8F5
:102940001431D3F8AC30B3F1806F38D0B3F1806F6D
:1029500031D8B3F1407F34D0B3F1407F2BD8B3F1FD
:10296000007F1DD0B3F1007F25D8002B06D0B3F136
:10297000807F0AD01FE000BF00440258A24BDB6AF0
:10298000A14A43F40033D3621CE0D7F81431083372
:102990000021184601F01CFB034687F8273111E09F
:1029A000D7F8143128330021184601F0C3FB034641
:1029B00087F8273106E0012387F8273102E000BFBE
:1029C00000E000BF97F82731002B0BD18E4B9B6D99
:1029D00023F0E061D7F81431D3F8AC308A4A0B43C6
:1029E000936503E097F8273187F82631D7F814313B
:1029F000D3E9002302F00073C7F8F8300023C7F8CA
:102A0000FC30D7E93E120B4613433AD0D7F81431C5
:102A1000DB6C302B1FD0302B19D8202B0CD0202B67
:102A200015D8002B19D0102B11D1774BDB6A764AC1
:102A300043F40033D36211E0D7F814310833022194
:102A4000184601F0C5FA034687F8273106E001234E
:102A500087F8273102E000BF00E000BF97F8273178
:102A6000002B0AD1684BDB6C23F03001D7F814310E
:102A7000DB6C654A0B43D36403E097F8273187F892
:102A80002631D7F81431D3E9002302F48053C7F874
:102A9000F0300023C7F8F430D7E93C120B4613435B
:102AA00051D0D7F814311B6EB3F5804F35D0B3F544
:102AB000804F2ED8B3F5405F31D0B3F5405F28D8B2
:102AC000B3F5005F1AD0B3F5005F22D8002B03D016
:102AD000B3F5805F07D01CE04B4BDB6A4A4A43F4F6
:102AE0000033D3621CE0D7F81431083300211846B4
:102AF00001F06EFA034687F8273111E0D7F8143158
:102B000028330021184601F015FB034687F82731CA
:102B100006E0012387F8273102E000BF00E000BF94
:102B200097F82731002B0AD1374B1B6D23F4E04176
:102B3000D7F814311B6E344A0B43136503E097F842
:102B4000273187F82631D7F81431D3E9002302F46E
:102B50000053C7F8E8300023C7F8EC30D7E93A1241
:102B60000B46134356D0D7F814315B6EB3F5A02F44
:102B700033D0B3F5A02F2CD8B3F5802F2FD0B3F5D9
:102B8000802F26D8B3F5403F2BD0B3F5403F20D857
:102B9000B3F5003F12D0B3F5003F1AD8002B22D076
:102BA000B3F5803F15D1D7F8143108330121184609
:102BB00001F00EFA034687F8273115E0D7F81431F3
:102BC00028330121184601F0B5FA034687F827316A
:102BD0000AE0012387F8273106E000BF04E000BFC8
:102BE00002E000BF00E000BF97F82731002B0DD1B5
:102BF000054B1B6D23F4E021D7F814315B6E024ABC
:102C00000B43136506E000BF0044025897F82731D4
:102C100087F82631D7F81431D3E9002302F4804332
:102C2000C7F8E0300023C7F8E430D7E938120B4684
:102C3000134355D0D7F81431D3F8B030B3F1A04FC7
:102C400033D0B3F1A04F2CD8B3F1804F2FD0B3F1D4
:102C5000804F26D8B3F1405F2BD0B3F1405F20D82E
:102C6000B3F1005F12D0B3F1005F1AD8002B22D06D
:102C7000B3F1805F15D1D7F814310833012118461C
:102C800001F0A6F9034687F8273115E0D7F814318B
:102C900028330121184601F04DFA034687F8273101
:102CA0000AE0012387F8273106E000BF04E000BFF7
:102CB00002E000BF00E000BF97F82731002B0BD1E6
:102CC000A34B9B6D23F0E041D7F81431D3F8B0301B
:102CD0009F4A0B43936503E097F8273187F8263125
:102CE000D7F81431D3E9002302F40043C7F8D830F1
:102CF0000023C7F8DC30D7E936120B46134337D030
:102D0000D7F814311B6FB3F1005F0ED0B3F1005F41
:102D100016D8002B18D0B3F1805F11D18C4BDB6A31
:102D20008B4A43F40033D3620FE0D7F814310833F1
:102D30000121184601F04CF9034687F8273104E0D9
:102D4000012387F8273100E000BF97F82731002BD7
:102D50000AD17F4B1B6D23F04051D7F814311B6F04
:102D60007B4A0B43136503E097F8273187F8263138
:102D7000D7F81431D3E9002302F08073C7F8D030BC
:102D80000023C7F8D430D7E934120B46134339D0A7
:102D9000D7F814319B6C032B1CD801A252F823F0F6
:102DA000DD2D0008B12D0008BF2D0008DD2D000825
:102DB000674BDB6A664A43F40033D3620FE0D7F80F
:102DC000143108330221184601F002F9034687F84E
:102DD000273104E0012387F8273100E000BF97F88E
:102DE0002731002B0AD15A4BDB6C23F00301D7F8B3
:102DF00014319B6C564A0B43D36403E097F8273198
:102E000087F82631D7F81431D3E9002302F4800380
:102E1000C7F8C8300023C7F8CC30D7E932120B46C8
:102E2000134300F09F804B4B1B684A4A43F4807366
:102E3000136001F0D5FCC7F820010BE001F0D0FCD5
:102E40000246D7F82031D31A642B03D9032387F81D
:102E5000273105E03F4B1B6803F48073002BEDD056
:102E600097F82731002B79D1394B1A6FD7F81431E5
:102E7000D3F8B430534003F44073002B15D0344BD7
:102E80001B6F23F44073C7F81C31314B1B6F304A62
:102E900043F4803313672E4B1B6F2D4A23F480338A
:102EA00013672B4AD7F81C311367D7F81431D3F8BE
:102EB000B430B3F5807F18D101F092FCC7F820013F
:102EC0000DE001F08DFC0246D7F82031D21A41F214
:102ED00088339A4203D9032387F8273105E01C4B36
:102EE0001B6F03F00203002BEBD097F82731002B68
:102EF00029D1D7F81431D3F8B43003F44073B3F5C3
:102F0000407F0ED1124B1B6923F47C51D7F814314A
:102F1000D3F8B4301A09104B13400D4A0B43136118
:102F200005E00B4B1B690A4A23F47C531361084BE1
:102F3000196FD7F81431D3F8B430C3F30B03044A34
:102F40000B4313670EE097F8273187F8263109E025
:102F50000044025800480258CFFFFF0097F827317D
:102F600087F82631D7F81431D3E9002302F00103A2
:102F7000C7F8C0300023C7F8C430D7E930120B4679
:102F8000134300F08980D7F81431DB6F282B6BD8FE
:102F900001A252F823F000BF713000086930000828
:102FA000693000086930000869300008693000089D
:102FB00069300008693000083D30000869300008B9
:102FC000693000086930000869300008693000087D
:102FD0006930000869300008533000086930000883
:102FE000693000086930000869300008693000085D
:102FF0006930000869300008713000086930000845
:10300000693000086930000869300008693000083C
:103010006930000869300008713000086930000824
:10302000693000086930000869300008693000081C
:10303000693000086930000871300008D7F8143191
:1030400008330121184600F0C3FF034687F82731F3
:103050000FE0D7F8143128330121184601F06AF83F
:10306000034687F8273104E0012387F8273100E081
:1030700000BF97F82731002B0AD1BF4B5B6D23F0BF
:103080003801D7F81431DB6FBB4A0B43536503E0BB
:1030900097F8273187F82631D7F81431D3E9002380
:1030A00002F00203C7F8B8300023C7F8BC30D7E9F4
:1030B0002E120B46134341D0D7F814319B6F052BCA
:1030C00024D801A252F823F015310008E13000089D
:1030D000F7300008153100081531000815310008D7
:1030E000D7F8143108330121184600F071FF034668
:1030F00087F827310FE0D7F814312833012118461B
:1031000001F018F8034687F8273104E0012387F817
:10311000273100E000BF97F82731002B0AD1964BEA
:103120005B6D23F00701D7F814319B6F924A0B4374
:10313000536503E097F8273187F82631D7F8143123
:10314000D3E9002302F00403C7F8B0300023C7F826
:10315000B430D7E92C120B46134344D0D7F81431BE
:10316000D3F89430052B25D801A252F823F000BFE4
:10317000BD310008893100089F310008BD310008C9
:10318000BD310008BD310008D7F8143108330121E2
:10319000184600F01DFF034687F827310FE0D7F8E7
:1031A000143128330121184600F0C4FF034687F884
:1031B000273104E0012387F8273100E000BF97F8AA
:1031C0002731002B0BD16C4B9B6D23F00701D7F8F7
:1031D0001431D3F89430684A0B43936503E097F8B1
:1031E000273187F82631D7F81431D3E9002302F0CC
:1031F0002003C7F8A8300023C7F8AC30D7E92A125B
:103200000B46134355D0D7F81431D3F89030B3F1AF
:10321000A04F33D0B3F1A04F2CD8B3F1804F2FD0B3
:10322000B3F1804F26D8B3F1405F2BD0B3F1405FAC
:1032300020D8B3F1005F12D0B3F1005F1AD8002B91
:1032400022D0B3F1805F15D1D7F8143108330021B3
:10325000184600F0BDFE034687F8273115E0D7F881
:10326000143128330221184600F064FF034687F822
:1032700027310AE0012387F8273106E000BF04E088
:1032800000BF02E000BF00E000BF97F82731002B2D
:103290000BD1394B5B6D23F0E041D7F81431D3F8F3
:1032A0009030354A0B43536503E097F8273187F890
:1032B0002631D7F81431D3E9002302F04003C7F8D0
:1032C000A0300023C7F8A430D7E928120B461343D7
:1032D00058D0D7F81431D3F89C30B3F5A05F33D071
:1032E000B3F5A05F2CD8B3F5805F2FD0B3F5805F26
:1032F00026D8B3F5406F2BD0B3F5406F20D8B3F587
:10330000006F12D0B3F5006F1AD8002B22D0B3F59E
:10331000806F15D1D7F8143108330021184600F01A
:1033200057FE034687F8273115E0D7F814312833C4
:103330000221184600F0FEFE034687F827310AE016
:10334000012387F8273106E000BF04E000BF02E058
:1033500000BF00E000BF97F82731002B0ED1064BCD
:103360009B6D23F4E051D7F81431D3F89C30024A16
:103370000B43936506E000BF0044025897F82731DD
:1033800087F82631D7F81431D3E9002302F08003FF
:10339000C7F898300023C7F89C30D7E926120B46AF
:1033A000134355D0D7F81431D3F8A030B3F5204FDC
:1033B00033D0B3F5204F2CD8B3F5004F2FD0B3F551
:1033C000004F26D8B3F5C04F2BD0B3F5C04F20D84F
:1033D000B3F5804F12D0B3F5804F1AD8002B22D00E
:1033E000B3F5005F15D1D7F8143108330021184622
:1033F00000F0EEFD034687F8273115E0D7F81431C9
:1034000028330221184600F095FE034687F827313D
:103410000AE0012387F8273106E000BF04E000BF7F
:1034200002E000BF00E000BF97F82731002B0BD16E
:10343000A14B9B6D23F46041D7F81431D3F8A03031
:103440009D4A0B43936503E097F8273187F82631AF
:10345000D7F81431D3E9002302F00803C7F89030FD
:103460000023C7F89430D7E924120B4613431ED02B
:10347000D7F81431D3F88430B3F5805F0CD1D7F886
:10348000143128330221184600F054FE0346002B65
:1034900002D0012387F82631874B5B6D23F440511E
:1034A000D7F81431D3F88430834A0B435365D7F8E7
:1034B0001431D3E9002302F01003C7F88830002349
:1034C000C7F88C30D7E922120B4613431ED0D7F829
:1034D0001431D3F89830B3F5807F0CD1D7F814317C
:1034E00028330221184600F025FE0346002B02D0A7
:1034F000012387F82631704B9B6D23F44071D7F878
:103500001431D3F898306C4A0B439365D7F81431D3
:10351000D3E9002302F40023C7F880300023C7F862
:103520008430D7E920120B4613433ED0D7F814312C
:10353000D3F8A430B3F5003F22D0B3F5003F1BD839
:10354000002B03D0B3F5803F0BD015E0D7F8143132
:1035500008330021184600F03BFD034687F8273169
:103560000FE0D7F8143128330221184600F0E2FDAD
:10357000034687F8273104E0012387F8273100E06C
:1035800000BF97F82731002B0BD14B4B9B6D23F4D9
:103590004031D7F81431D3F8A430474A0B43936530
:1035A00003E097F8273187F82631D7F81431D3E9AB
:1035B000002302F48023BB670023FB67D7E91E12B8
:1035C0000B4613433BD0D7F81431D3F88830B3F50A
:1035D000401F1FD0B3F5401F18D8B3F5801F03D08C
:1035E000B3F5001F07D011E0334BDB6A324A43F4D6
:1035F0000033D3620FE0D7F8143128330121184685
:1036000000F098FD034687F8273104E0012387F88E
:10361000273100E000BF97F82731002B0BD1264B54
:103620005B6D23F44011D7F81431D3F88830224A67
:103630000B43536503E097F8273187F82631D7F815
:103640001431D3E9002302F480333B6700237B6706
:10365000D7E91C120B46134334D0D7F814311B6D35
:10366000002B03D0B3F5803F07D011E0124BDB6A8B
:10367000114A43F40033D3620EE0D7F81431083313
:103680000221184600F0A4FC034687F8273103E026
:10369000012387F8273100BF97F82731002B0DD180
:1036A000054BDB6C23F48031D7F814311B6D024AD3
:1036B0000B43D36406E000BF0044025897F827315B
:1036C00087F82631D7F81431D3E9002302F00053EC
:1036D000BB660023FB66D7E91A120B4613430CD0D6
:1036E000D7F8143128330221184600F023FD034691
:1036F000002B02D0012387F82631D7F81431D3E903
:10370000002302F400333B6600237B66D7E91812DE
:103710000B46134338D0D7F81431D3F88030B3F5C3
:10372000407F18D0B3F5407F11D8B3F5007F14D097
:10373000B3F5007F0BD8002B11D0B3F5807F06D1F5
:10374000C34BDB6AC24A43F40033D36208E001236F
:1037500087F8273104E000BF02E000BF00E000BFAF
:1037600097F82731002B0BD1B94B5B6D23F44071D7
:10377000D7F81431D3F88030B54A0B43536503E0D2
:1037800097F8273187F82631D7F81431D3E9002389
:1037900002F48013BB650023FB65D7E916120B46C4
:1037A000134309D0AA4B1B6D23F00041D7F8143105
:1037B0005B6FA74A0B431365D7F81431D3E9002395
:1037C00002F080533B6500237B65D7E914120B465A
:1037D00013430AD09E4B1B6923F48041D7F8143160
:1037E000D3F8B8309A4A0B431361D7F81431D3E9B0
:1037F000002302F40013BB640023FB64D7E9121218
:103800000B46134309D0924B1B6D23F08071D7F800
:103810001431DB6E8E4A0B431365D7F81431D3E9AC
:10382000002302F080433B6400237B64D7E910123D
:103830000B4613430ED0864B1B69854A23F4004385
:103840001361834B1969D7F81431D3F8BC30804A1F
:103850000B431361D7F81431D3E9002302F000437E
:10386000BB630023FB63D7E90E120B46134309D059
:10387000774BDB6C23F04051D7F814315B6D744A01
:103880000B43D364D7F81431D3E9002302F40003C7
:103890003B6300237B63D7E90C120B4613430AD02A
:1038A0006B4B5B6D23F44001D7F81431D3F88C30A7
:1038B000674A0B435365D7F81431D3E9002300213D
:1038C000B96203F00103FB62D7E90A120B46134306
:1038D00011D0D7F8143108330021184600F078FBD6
:1038E000034687F8273197F82731002B03D097F844
:1038F000273187F82631D7F81431D3E90023002186
:10390000396203F002037B62D7E908120B461343C6
:1039100011D0D7F8143108330121184600F058FBB4
:10392000034687F8273197F82731002B03D097F803
:10393000273187F82631D7F81431D3E90023002145
:10394000B96103F00403FB61D7E906120B46134388
:1039500011D0D7F8143108330221184600F038FB93
:10396000034687F8273197F82731002B03D097F8C3
:10397000273187F82631D7F81431D3E90023002105
:10398000396103F008037B61D7E904120B46134346
:1039900011D0D7F8143128330021184600F0CAFBA3
:1039A000034687F8273197F82731002B03D097F883
:1039B000273187F82631D7F81431D3E900230021C5
:1039C000B96003F01003FB60D7E902120B46134302
:1039D00011D0D7F8143128330121184600F0AAFB82
:1039E000034687F8273197F82731002B03D097F843
:1039F000273187F82631D7F81431D3E90023002185
:103A0000396003F020037B60D7E900120B461343B3
:103A100011D0D7F8143128330221184600F08AFB60
:103A2000034687F8273197F82731002B03D097F802
:103A3000273187F8263197F82631002B01D1002352
:103A400000E00123184607F59477BD46BDE8B08F26
:103A50000044025880B500AFFEF796FD0246064BC3
:103A60001B6A1B0903F007030449CB5C03F01F0327
:103A700022FA03F3184680BD00440258A0720008E1
:103A800080B489B000AF7860A14B9B6A03F0030358
:103A9000BB619F4B9B6A1B0B03F03F037B619C4BFD
:103AA000DB6A1B0903F001033B61994BDB6BDB080D
:103AB000C3F30C033A6902FB03F307EE903AF8EE06
:103AC000677AC7ED037A7B69002B00F01181BB692F
:103AD000022B00F08380BB69022B00F2A180BB693E
:103AE000002B03D0BB69012B56D099E0884B1B6893
:103AF00003F02003002B2DD0854B1B68DB0803F05F
:103B00000303844A22FA03F3BB60BB6807EE903AD2
:103B1000F8EE676A7B6907EE903AF8EE677A86EE10
:103B2000A77A7B4B9B6BC3F3080307EE903AF8EE42
:103B3000676A97ED036ADFED785AC6EE257A76EE6E
:103B4000A77AF7EE006A77EEA67A67EE277AC7EDD6
:103B5000077A87E07B6907EE903AF8EE677ADFED47
:103B60006F6A86EEA77A6A4B9B6BC3F3080307EE76
:103B7000903AF8EE676A97ED036ADFED675AC6EE92
:103B8000257A76EEA77AF7EE006A77EEA67A67EEE8
:103B9000277AC7ED077A65E07B6907EE903AF8EE81
:103BA000677ADFED5F6A86EEA77A594B9B6BC3F3AA
:103BB000080307EE903AF8EE676A97ED036ADFEDC7
:103BC000565AC6EE257A76EEA77AF7EE006A77EEB9
:103BD000A67A67EE277AC7ED077A43E07B6907EE9E
:103BE000903AF8EE677ADFED4F6A86EEA77A484B97
:103BF0009B6BC3F3080307EE903AF8EE676A97ED04
:103C0000036ADFED455AC6EE257A76EEA77AF7EE1F
:103C1000006A77EEA67A67EE277AC7ED077A21E089
:103C20007B6907EE903AF8EE677ADFED3D6A86EE43
:103C3000A77A374B9B6BC3F3080307EE903AF8EE75
:103C4000676A97ED036ADFED345AC6EE257A76EEA1
:103C5000A77AF7EE006A77EEA67A67EE277AC7EDC5
:103C6000077A00BF2A4B9B6B5B0A03F07F0307EECA
:103C7000903AF8EE677AB7EE007A37EE877AD7EDAA
:103C8000076AC6EE877AFCEEE77A17EE902A7B6821
:103C90001A601F4B9B6B1B0C03F07F0307EE903ADF
:103CA000F8EE677AB7EE007A37EE877AD7ED076AD3
:103CB000C6EE877AFCEEE77A17EE902A7B685A60A8
:103CC000134B9B6B1B0E03F07F0307EE903AF8EE4D
:103CD000677AB7EE007A37EE877AD7ED076AC6EED5
:103CE000877AFCEEE77A17EE902A7B689A6008E004
:103CF0007B6800221A607B6800225A607B68002281
:103D00009A6000BF2437BD465DF8047B704700BF52
:103D1000004402580090D003000000460024744C78
:103D20000024744A20BCBE4B80B489B000AF7860D8
:103D3000A14B9B6A03F00303BB619F4B9B6A1B0D66
:103D400003F03F037B619C4BDB6A1B0A03F001031A
:103D50003B61994B5B6CDB08C3F30C033A6902FBD4
:103D600003F307EE903AF8EE677AC7ED037A7B69C2
:103D7000002B00F01181BB69022B00F08380BB692E
:103D8000022B00F2A180BB69002B03D0BB69012B81
:103D900056D099E0884B1B6803F02003002B2DD0F0
:103DA000854B1B68DB0803F00303844A22FA03F304
:103DB000BB60BB6807EE903AF8EE676A7B6907EE76
:103DC000903AF8EE677A86EEA77A7B4B1B6CC3F3CA
:103DD000080307EE903AF8EE676A97ED036ADFEDA5
:103DE000785AC6EE257A76EEA77AF7EE006A77EE75
:103DF000A67A67EE277AC7ED077A87E07B6907EE38
:103E0000903AF8EE677ADFED6F6A86EEA77A6A4B32
:103E10001B6CC3F3080307EE903AF8EE676A97ED60
:103E2000036ADFED675AC6EE257A76EEA77AF7EEDB
:103E3000006A77EEA67A67EE277AC7ED077A65E023
:103E40007B6907EE903AF8EE677ADFED5F6A86EEFF
:103E5000A77A594B1B6CC3F3080307EE903AF8EEB0
:103E6000676A97ED036ADFED565AC6EE257A76EE5D
:103E7000A77AF7EE006A77EEA67A67EE277AC7EDA3
:103E8000077A43E07B6907EE903AF8EE677ADFED58
:103E90004F6A86EEA77A484B1B6CC3F3080307EE04
:103EA000903AF8EE676A97ED036ADFED455AC6EE81
:103EB000257A76EEA77AF7EE006A77EEA67A67EEB5
:103EC000277AC7ED077A21E07B6907EE903AF8EE92
:103ED000677ADFED3D6A86EEA77A374B1B6CC3F33A
:103EE000080307EE903AF8EE676A97ED036ADFED94
:103EF000345AC6EE257A76EEA77AF7EE006A77EEA8
:103F0000A67A67EE277AC7ED077A00BF2A4B1B6CAB
:103F10005B0A03F07F0307EE903AF8EE677AB7EE9C
:103F2000007A37EE877AD7ED076AC6EE877AFCEE1D
:103F3000E77A17EE902A7B681A601F4B1B6C1B0CEC
:103F400003F07F0307EE903AF8EE677AB7EE007A57
:103F500037EE877AD7ED076AC6EE877AFCEEE77A06
:103F600017EE902A7B685A60134B1B6C1B0E03F0F4
:103F70007F0307EE903AF8EE677AB7EE007A37EEF5
:103F8000877AD7ED076AC6EE877AFCEEE77A17EEF6
:103F9000902A7B689A6008E07B6800221A607B6840
:103FA00000225A607B6800229A6000BF2437BD4619
:103FB0005DF8047B704700BF004402580090D003B6
:103FC000000000460024744C0024744A20BCBE4B00
:103FD00080B584B000AF786039600023FB73534B29
:103FE0009B6A03F00303032B01D1012399E04F4B9C
:103FF0001B684E4A23F08063136000F0F1FBB86049
:1040000008E000F0EDFB0246BB68D31A022B01D991
:10401000032386E0454B1B6803F00063002BF0D1BF
:10402000424B9B6A23F47C327B681B681B033F492D
:1040300013438B627B685B68013BC3F308027B68B8
:104040009B68013B5B029BB21A437B68DB68013BC8
:104050001B0403F4FE031A437B681B69013B1B0628
:1040600003F0FE43314913438B63304BDB6A23F08B
:10407000C0027B685B692D491343CB622B4BDB6A23
:1040800023F020027B689B6928491343CB62274BAE
:10409000DB6A264A23F01003D362244BDA6B244BED
:1040A00013407A68D269D20020491343CB631F4B77
:1040B000DB6A1E4A43F01003D3623B68002B06D133
:1040C0001A4BDB6A194A43F40023D3620FE03B68C2
:1040D000012B06D1154BDB6A144A43F48013D362DB
:1040E00005E0124BDB6A114A43F40013D3620F4B15
:1040F0001B680E4A43F08063136000F071FBB860E8
:1041000008E000F06DFB0246BB68D31A022B01D910
:10411000032306E0054B1B6803F00063002BF0D07F
:10412000FB7B18461037BD4680BD00BF00440258D7
:104130000700FFFF80B584B000AF786039600023CE
:10414000FB73534B9B6A03F00303032B01D1012341
:1041500099E04F4B1B684E4A23F08053136000F0E8
:104160003FFBB86008E000F03BFB0246BB68D31A97
:10417000022B01D9032386E0454B1B6803F0005353
:10418000002BF0D1424B9B6A23F07C727B681B684A
:104190001B053F4913438B627B685B68013BC3F39C
:1041A00008027B689B68013B5B029BB21A437B68F9
:1041B000DB68013B1B0403F4FE031A437B681B69A5
:1041C000013B1B0603F0FE43314913430B64304BA4
:1041D000DB6A23F440627B685B692D491343CB6241
:1041E0002B4BDB6A23F400727B689B6928491343DD
:1041F000CB62274BDB6A264A23F48073D362244BBD
:104200005A6C244B13407A68D269D2002049134378
:104210004B641F4BDB6A1E4A43F48073D3623B68D6
:10422000002B06D11A4BDB6A194A43F48003D36290
:104230000FE03B68012B06D1154BDB6A144A43F4AF
:104240000003D36205E0124BDB6A114A43F080732E
:10425000D3620F4B1B680E4A43F08053136000F08B
:10426000BFFAB86008E000F0BBFA0246BB68D31A98
:10427000022B01D9032306E0054B1B6803F0005312
:10428000002BF0D0FB7B18461037BD4680BD00BF29
:10429000004402580700FFFF80B489B000AF786087
:1042A00039600023FB61894B7B6194E13B681A68AC
:1042B0000121FB6901FA03F313403B613B69002BC9
:1042C00000F086813B685B6803F00303012B05D097
:1042D0003B685B6803F00303022B30D17B689B686B
:1042E000BB61FB695B00032202FA03F3DB43BA699B
:1042F0001340BB613B68DA68FB695B0002FA03F3B9
:10430000BA691343BB617B68BA699A607B685B6872
:10431000BB610122FB6902FA03F3DB43BA69134074
:10432000BB613B685B681B0903F00102FB6902FA91
:1043300003F3BA691343BB617B68BA695A603B688F
:104340005B6803F00303032B17D07B68DB68BB615A
:10435000FB695B00032202FA03F3DB43BA691340F3
:10436000BB613B689A68FB695B0002FA03F3BA69B8
:104370001343BB617B68BA69DA603B685B6803F032
:104380000303022B23D1FB69DA087B68083253F858
:104390002230BB61FB6903F007039B000F2202FA86
:1043A00003F3DB43BA691340BB613B681A69FB69DD
:1043B00003F007039B0002FA03F3BA691343BB61DE
:1043C000FB69DA087B680832B96943F822107B6818
:1043D0001B68BB61FB695B00032202FA03F3DB434A
:1043E000BA691340BB613B685B6803F00302FB6979
:1043F0005B0002FA03F3BA691343BB617B68BA69D5
:104400001A603B685B6803F44033002B00F0E080E7
:104410002F4BD3F8F4302E4A43F00203C2F8F430A5
:104420002B4BD3F8F43003F00203FB60FB68294AFE
:10443000FB699B08023352F82330BB61FB6903F030
:1044400003039B000F2202FA03F3DB43BA69134014
:10445000BB617B68204A934252D07B681F4A9342DB
:1044600031D07B681E4A93422BD07B681D4A934211
:1044700025D07B681C4A93421FD07B681B4A93421D
:1044800019D07B681A4A934213D07B68194A934229
:104490000DD07B68184A934207D07B68174A934235
:1044A00001D109232DE00A232BE0082329E007236B
:1044B00027E0062325E0052323E0042321E003234E
:1044C0001FE002231DE001231BE000BF8000005815
:1044D000004402580004005800000258000402582A
:1044E00000080258000C025800100258001402582C
:1044F00000180258001C02580020025800240258DC
:104500000023FA6902F0030292009340BA69134350
:10451000BB613849FB699B080233BA6941F8232023
:104520004FF0B0431B68BB613B69DB43BA69134082
:10453000BB613B685B6803F48013002B03D0BA694E
:104540003B691343BB614FF0B042BB6913604FF04E
:10455000B0435B68BB613B69DB43BA691340BB6135
:104560003B685B6803F40013002B03D0BA693B6916
:104570001343BB614FF0B042BB6953607B695B681A
:10458000BB613B69DB43BA691340BB613B685B6855
:1045900003F40033002B03D0BA693B691343BB61BA
:1045A0007B69BA695A607B691B68BB613B69DB4305
:1045B000BA691340BB613B685B6803F48033002B2E
:1045C00003D0BA693B691343BB617B69BA691A605E
:1045D000FB690133FB613B681A68FB6922FA03F34C
:1045E000002B7FF463AE00BF00BF2437BD465DF8EB
:1045F000047B70470004005880B483B000AF78603B
:104600000B467B8013467B707B78002B03D07A8827
:104610007B689A6103E07B881A047B689A6100BF1B
:104620000C37BD465DF8047B704780B582B000AFA3
:104630000346FB804FF0B043D3F88820FB8813403B
:10464000002B08D04FF0B042FB88C2F88830FB88BE
:104650001846FCF717FB00BF0837BD4680BD0000B9
:1046600080B584B000AF7860194BDB6803F00403B9
:10467000042B0AD0164BDB6803F007037A689A42D2
:1046800001D001231FE000231DE0114BDB6823F064
:1046900007020F497B681343CB6000F0A1F8F86074
:1046A00009E000F09DF80246FB68D31AB3F57A7F63
:1046B00001D9012307E0064B5B6803F40053B3F50F
:1046C000005FEED1002318461037BD4680BD00BF05
:1046D0000048025880B582B000AF0320FCF7DEFD31
:1046E000FDF7D8FD0246154B9B691B0A03F00F032B
:1046F0001349CB5C03F01F0322FA03F37B600F4BDB
:104700009B6903F00F030E4AD35C03F01F037A6822
:1047100022FA03F30B4A13600B4A7B6813600F20E5
:1047200000F014F80346002B01D0012302E0FCF74F
:1047300093FB002318460837BD4680BD004402584D
:10474000A07200085C0000205800002080B582B0F4
:1047500000AF7860154B1B78002B01D1012321E0BD
:10476000134B1A68114B1B7819464FF47A73B3FB3D
:10477000F1F3B2FBF3F31846FCF7C3FD0346002B3D
:1047800001D001230EE07B680F2B0AD80022796844
:104790004FF0FF30FCF78DFD064A7B681360002365
:1047A00000E0012318460837BD4680BD54000020B4
:1047B000580000205000002080B400AF064B1B784A
:1047C0001A46064B1B681344044A136000BFBD46DB
:1047D0005DF8047B704700BF5400002034030020C4
:1047E00080B400AF034B1B681846BD465DF8047BE0
:1047F000704700BF3403002080B584B000AF7860FC
:10480000FFF7EEFFB8607B68FB60FB68B3F1FF3F2A
:1048100005D00A4B1B781A46FB681344FB6000BFA7
:10482000FFF7DEFF0246BB68D31AFA689A42F7D850
:1048300000BF00BF1037BD4680BD00BF5400002040
:1048400080B400AF034B1B681B0C1846BD465DF8D7
:10485000047B70470010005C80B584B000AF7860C6
:104860007B68002B01D101230FE17B6800229A6253
:104870007B681B68874A93420FD07B681B68864A17
:1048800093420AD07B681B68844A934205D07B68B8
:10489000DB680F2B01D90123F7E0786800F008FDF1
:1048A000F8607B681B687B4A93420CD07B681B686E
:1048B000794A934207D07B681B68784A934202D0BA
:1048C000FB68082B11D87B681B68724A934209D099
:1048D0007B681B68704A934204D07B681B686F4AF0
:1048E000934204D1FB68102B01D90123CDE07B68F2
:1048F00093F88130DBB2002B06D17B68002283F86D
:1049000080207868FCF72AFB7B68022283F88120EC
:104910007B681B681A687B681B6822F001021A60BA
:104920007B681B689B6803F4F813BB607B689B691A
:10493000B3F1806F19D17B685B68B3F5800F03D149
:104940007B689B6B002B08D07B685B68002B0CD1CD
:104950007B689B6BB3F1805F07D17B681B681A682B
:104960007B681B6842F480521A607B685B6803F4C2
:104970008003002B0FD07B68DB68062B0BD97B688C
:104980001B681B6823F480717B681A6D7B681B6849
:104990000A431A6007E07B681B681A687B681B681B
:1049A00022F480721A607B68DA697B689B6A1A431A
:1049B000BB681A437B68DB6B42EA03017B68DA68F9
:1049C0007B681B680A439A607B685A6B7B685B6AEA
:1049D0001A437B689B6B1A437B689B691A437B680D
:1049E0001B691A437B685B691A437B681B6A1A431D
:1049F0007B685B681A437B68DB6C1A437B689B6847
:104A00001A437B689B6C42EA03017B689A6D7B6862
:104A10001B680A43DA607B685B68002B13D17B68F4
:104A20001B689B6823F4C0527B681B6842F40062D9
:104A30009A607B681B689B6823F4C0627B681B6874
:104A400042F480629A607B681B681A6D7B681B6801
:104A500022F001021A657B685B6803F48003002B77
:104A60000AD07B681B68DB6823F000417B685A6DC5
:104A70007B681B680A43DA607B680022C3F88420E5
:104A80007B68012283F88120002318461037BD4639
:104A900080BD00BF0030014000380040003C0040B5
:104AA00080B58EB002AFF860B9607A607B80FB6839
:104AB0001B6820337B62FB681B6830333B62FB68FA
:104AC000DB6B5B099BB20133FB83FFF789FEB861A7
:104AD0007B887B857B883B85FB6893F88130DBB2E4
:104AE000012B01D0022310E3BB68002B05D07B68AB
:104AF000002B02D07B88002B01D1012305E3FB684A
:104B000093F88030012B01D10223FEE2FB680122E1
:104B100083F88020FB68052283F88120FB6800224F
:104B2000C3F88420FB687A685A66FB687A88A3F821
:104B30006A20FB687A88A3F86820FB68BA68DA659F
:104B4000FB687A88A3F86220FB687A88A3F8602063
:104B5000FB6800221A67FB6800225A67FB681B6823
:104B6000DA68FB681B6822F4C022DA60FB681B6805
:104B7000704A934209D0FB681B686F4A934204D085
:104B8000FB681B686D4A934202D11023FB6201E06F
:104B90000823FB62FB681B685A68694B13407988DD
:104BA000FA6812680B435360FB681B681A68FB685D
:104BB0001B6842F001021A60FB685B68B3F5800F66
:104BC00007D1FB681B681A68FB681B6842F4007217
:104BD0001A60FB68DB680F2B40F2A280FB6A9B081F
:104BE000FB6294E0FB681B685B6903F00203022B25
:104BF00020D17B8D002B1DD03A8D798DFB6A0B4423
:104C00009A4217D2FB68DA6DFB681B6812681A6259
:104C1000FB68DB6D1A1DFB68DA65FB68B3F8623070
:104C20009BB2013B9AB2FB68A3F86220FB68B3F821
:104C300062307B85FB681B685B697B613B8D002B69
:104C400065D0FB681B685B6903F00103012B18D179
:104C5000FB681A68FB685B6E126B1A60FB685B6E20
:104C60001A1DFB685A66FB68B3F86A309BB2013BB9
:104C70009AB2FB68A3F86A20FB68B3F86A303B85F8
:104C800045E03A8DFB8B9A421DD27B6903F40043C9
:104C9000002B18D0FB681A68FB685B6E126B1A60F9
:104CA000FB685B6E1A1DFB685A66FB68B3F86A30D6
:104CB0009BB2013B9AB2FB68A3F86A20FB68B3F889
:104CC0006A303B8523E0FFF78BFD0246BB69D31AB0
:104CD000BA6B9A4203D8BB6BB3F1FF3F02D1BB6BF7
:104CE000002B14D1F86800F015FAFB68D3F8843073
:104CF00043F48072FB68C3F88420FB68012283F8C8
:104D00008120FB68002283F880200323FDE17B8D56
:104D1000002B7FF467AF3B8D002B7FF463AFCEE1B8
:104D2000FB68DB68072B40F2C281FB6A5B08FB6211
:104D3000C9E000BF0030014000380040003C0040A6
:104D40000000FFFFFB681B685B6903F00203022B96
:104D50001FD17B8D002B1CD03A8D798DFB6A0B44C3
:104D60009A4216D2FB68DB6D1A887B6A1A80FB6850
:104D7000DB6D9A1CFB68DA65FB68B3F862309BB2A6
:104D8000013B9AB2FB68A3F86220FB68B3F862307B
:104D90007B85FB681B685B697B613B8D002B00F0AA
:104DA0009280FB681B685B6903F00103012B18D13B
:104DB000FB685B6E3A6A128892B21A80FB685B6E7F
:104DC0009A1CFB685A66FB68B3F86A309BB2013BD9
:104DD0009AB2FB68A3F86A20FB68B3F86A303B8597
:104DE00071E03A8DFB8B9A4228D27B6903F4004331
:104DF000002B23D0FB685B6E3A6A128892B21A804D
:104E0000FB685B6E9A1CFB685A66FB685B6E3A6ACD
:104E1000128892B21A80FB685B6E9A1CFB685A6615
:104E2000FB68B3F86A309BB2023B9AB2FB68A3F806
:104E30006A20FB68B3F86A303B8544E03B8D012B68
:104E40001DD17B6903F40053002B18D0FB685B6E07
:104E50003A6A128892B21A80FB685B6E9A1CFB68F1
:104E60005A66FB68B3F86A309BB2013B9AB2FB68A2
:104E7000A3F86A20FB68B3F86A303B8523E0FFF7AC
:104E8000AFFC0246BB69D31ABA6B9A4203D8BB6B1C
:104E9000B3F1FF3F02D1BB6B002B14D1F86800F0D7
:104EA00039F9FB68D3F8843043F48072FB68C3F8A7
:104EB0008420FB68012283F88120FB68002283F8AC
:104EC0008020032321E17B8D002B7FF43BAF3B8DC2
:104ED000002B7FF437AFF2E0FB681B685B6903F0DF
:104EE0000203022B21D17B8D002B1ED03A8D798DB0
:104EF000FB6A0B449A4218D2FB68DA6DFB681B68A8
:104F0000203312781A70FB68DB6D5A1CFB68DA6577
:104F1000FB68B3F862309BB2013B9AB2FB68A3F81E
:104F20006220FB68B3F862307B85FB681B685B69B5
:104F30007B613B8D002B00F0BA80FB681B685B69CE
:104F400003F00103012B1BD1FB681B6803F1300246
:104F5000FB685B6E1278D2B21A70FB685B6E5A1CEB
:104F6000FB685A66FB68B3F86A309BB2013B9AB2A1
:104F7000FB68A3F86A20FB68B3F86A303B8596E0CB
:104F80003A8DFB8B9A424AD27B6903F40043002B93
:104F900045D0FB681B6803F13002FB685B6E12783A
:104FA000D2B21A70FB685B6E5A1CFB685A66FB68CB
:104FB0001B6803F13002FB685B6E1278D2B21A7084
:104FC000FB685B6E5A1CFB685A66FB681B6803F142
:104FD0003002FB685B6E1278D2B21A70FB685B6EAF
:104FE0005A1CFB685A66FB681B6803F13002FB68B9
:104FF0005B6E1278D2B21A70FB685B6E5A1CFB684B
:105000005A66FB68B3F86A309BB2043B9AB2FB68FD
:10501000A3F86A20FB68B3F86A303B8547E03B8D14
:10502000032B20D87B6903F4C043002B1BD0FB6803
:105030001B6803F13002FB685B6E1278D2B21A7003
:10504000FB685B6E5A1CFB685A66FB68B3F86A30F3
:105050009BB2013B9AB2FB68A3F86A20FB68B3F8E5
:105060006A303B8523E0FFF7BBFB0246BB69D31ADE
:10507000BA6B9A4203D8BB6BB3F1FF3F02D1BB6B53
:10508000002B14D1F86800F045F8FB68D3F88430A1
:1050900043F48072FB68C3F88420FB68012283F824
:1050A0008120FB68002283F8802003232DE07B8D84
:1050B000002B7FF411AF3B8D002B7FF40DAFBB694C
:1050C0000093BB6B00220821F86800F0C3F8034688
:1050D000002B07D0FB68D3F8843043F02002FB6834
:1050E000C3F88420F86800F015F8FB68012283F803
:1050F0008120FB68002283F88020FB68D3F884308D
:10510000002B01D0012300E0002318463037BD46B4
:1051100080BD00BF80B485B000AF78607B681B683D
:105120005B69FB607B681B689A697B681B6842F05F
:1051300008029A617B681B689A697B681B6842F069
:1051400010029A617B681B681A687B681B6822F0F2
:1051500001021A607B681B6819697B681A683C4BFE
:105160000B4013617B681B689A687B681B6822F49C
:1051700040429A607B6893F88130DBB2042B14D0F4
:10518000FB6803F02003002B0FD07B68D3F884303A
:1051900043F080027B68C3F884207B681B689A69AF
:1051A0007B681B6842F020029A617B6893F881302B
:1051B000DBB2032B14D0FB6803F04003002B0FD0AD
:1051C0007B68D3F8843043F004027B68C3F8842002
:1051D0007B681B689A697B681B6842F040029A6191
:1051E000FB6803F40073002B0FD07B68D3F8843086
:1051F00043F001027B68C3F884207B681B689A69CE
:105200007B681B6842F400729A61FB6803F4807348
:10521000002B0FD07B68D3F8843043F008027B6802
:10522000C3F884207B681B689A697B681B6842F41A
:1052300080729A617B680022A3F862207B6800225A
:10524000A3F86A2000BF1437BD465DF8047B7047A1
:1052500090FCFFFF80B584B000AFF860B9603B60A0
:105260001346FB7110E0FFF7BBFA0246BB69D31A85
:105270003A689A4203D83B68B3F1FF3F02D13B68DA
:10528000002B01D103230FE0FB681B685A69BB6840
:105290001340BA689A420CBF01230023DBB21A46BE
:1052A000FB799A42DFD0002318461037BD4680BDF7
:1052B00080B485B000AF78607B68DB6B5B0901333D
:1052C000FB607B68DB680133BB60BB680733DB08CE
:1052D000BB60BB68FA6802FB03F318461437BD468F
:1052E0005DF8047B704780B582B000AF78607B6862
:1052F000002B01D1012342E07B68D3F88830002BDA
:1053000006D17B68002283F884207868FBF78EFE44
:105310007B682422C3F888207B681B681A687B6836
:105320001B6822F001021A607B689B6A002B02D086
:10533000786800F01FFE786800F0B4F80346012B8F
:1053400001D101231BE07B681B685A687B681B68DE
:1053500022F490425A607B681B689A687B681B68DD
:1053600022F02A029A607B681B681A687B681B68B7
:1053700042F001021A60786800F09EFE034618466B
:105380000837BD4680BD80B58AB002AFF860B9600D
:105390003B601346FB80FB68D3F88830202B7BD121
:1053A000BB68002B02D0FB88002B01D1012374E0E5
:1053B000FB680022C3F89020FB682122C3F88820F4
:1053C000FFF70EFA7861FB68FA88A3F85420FB68AF
:1053D000FA88A3F85620FB689B68B3F5805F08D174
:1053E000FB681B69002B04D10023FB61BB68BB6118
:1053F00003E0BB68FB610023BB6130E03B680093C6
:105400007B6900228021F86800F000FF0346002B32
:1054100005D0FB682022C3F8882003233DE0FB6908
:10542000002B0BD1BB691B881A46FB681B68C2F3B3
:1054300008029A62BB690233BB6107E0FB691A7814
:10544000FB681B689A62FB690133FB61FB68B3F878
:1054500056309BB2013B9AB2FB68A3F85620FB681A
:10546000B3F856309BB2002BC8D13B6800937B69E0
:1054700000224021F86800F0C9FE0346002B05D049
:10548000FB682022C3F88820032306E0FB68202263
:10549000C3F88820002300E0022318462037BD46C9
:1054A00080BD00002DE9B04F92B000AF78610023BD
:1054B00087F842307B699A687B691B691A437B696C
:1054C0005B691A437B69DB6913437B647B691B68F7
:1054D0001A68BE4B13407A691268796C0B431360EB
:1054E0007B691B685B6823F440517B69DA687B69E0
:1054F0001B680A435A607B699B697B647B691B68F4
:10550000B34A934204D07B691B6A7A6C13437B6471
:105510007B691B689A68AF4B13407A691268796C93
:105520000B4393607B691B68DB6A23F00F017B6987
:105530005A6A7B691B680A43DA627B691B68A64A60
:10554000934277D1A54B5B6D03F03803282B6DD8C0
:1055500001A252F823F000BFFD5500082D560008A7
:105560002D5600082D5600082D5600082D5600080F
:105570002D5600082D560008055600082D56000827
:105580002D5600082D5600082D5600082D560008EF
:105590002D5600082D5600080D5600082D560008FF
:1055A0002D5600082D5600082D5600082D560008CF
:1055B0002D5600082D560008155600082D560008D7
:1055C0002D5600082D5600082D5600082D560008AF
:1055D0002D5600082D5600081D5600082D560008AF
:1055E0002D5600082D5600082D5600082D5600088F
:1055F0002D5600082D56000825560008012387F86F
:10560000433022E2042387F843301EE2082387F860
:1056100043301AE2102387F8433016E2202387F83C
:10562000433012E2402387F843300EE2802387F8AC
:1056300043300AE27B691B68694A934230D1674B69
:105640005B6D03F00703052B26D801A252F823F067
:1056500069560008715600087956000881560008FE
:105660008956000891560008002387F84330ECE182
:10567000042387F84330E8E1082387F84330E4E166
:10568000102387F84330E0E1202387F84330DCE142
:10569000402387F84330D8E1802387F84330D4E1B2
:1056A0007B691B684F4A934230D14C4B5B6D03F0D2
:1056B0000703052B26D801A252F823F0D55600087F
:1056C000DD560008E5560008ED560008F5560008BE
:1056D000FD560008002387F84330B6E1042387F81D
:1056E0004330B2E1082387F84330AEE1102387F856
:1056F0004330AAE1202387F84330A6E1402387F80E
:105700004330A2E1802387F843309EE17B691B6828
:10571000354A934230D1314B5B6D03F00703052BC3
:1057200026D801A252F823F0415700084957000833
:105730005157000859570008615700086957000879
:10574000002387F8433080E1042387F843307CE16D
:10575000082387F8433078E1102387F8433074E159
:10576000202387F8433070E1402387F843306CE111
:10577000802387F8433068E17B691B681B4A9342AA
:1057800042D1164B5B6D03F00703052B38D801A2FD
:1057900052F823F0AD570008B5570008BD57000870
:1057A000C5570008F1570008F9570008002387F88B
:1057B00043304AE1042387F8433046E1082387F861
:1057C000433042E1102387F843303EE1F369FFCFD5
:1057D000000C0058FFF4FF11001001400044025873
:1057E0000044004000480040004C00400050004091
:1057F000202387F8433028E1402387F8433024E111
:10580000802387F8433020E17B691B68CB4A9342B1
:1058100076D1CB4B5B6D03F03803282B6CD801A2FB
:1058200052F823F0C9580008F9580008F958000840
:10583000F9580008F9580008F9580008F958000804
:10584000F9580008D1580008F9580008F95800081C
:10585000F9580008F9580008F9580008F9580008E4
:10586000F9580008D9580008F9580008F9580008F4
:10587000F9580008F9580008F9580008F9580008C4
:10588000F9580008E1580008F9580008F9580008CC
:10589000F9580008F9580008F9580008F9580008A4
:1058A000F9580008E9580008F9580008F9580008A4
:1058B000F9580008F9580008F9580008F958000884
:1058C000F9580008F1580008012387F84330BCE07C
:1058D000042387F84330B8E0082387F84330B4E066
:1058E000102387F84330B0E0202387F84330ACE042
:1058F000402387F84330A8E0802387F84330A4E0B2
:105900007B691B688F4A934230D18D4B5B6D03F0EE
:105910000703052B26D801A252F823F035590008B9
:105920003D590008455900084D59000855590008CF
:105930005D590008002387F8433086E0042387F888
:10594000433082E0082387F843307EE0102387F855
:1059500043307AE0202387F8433076E0402387F80D
:10596000433072E0802387F843306EE07B691B6828
:10597000754A934230D1724B5B6D03F00703052BE0
:1059800026D801A252F823F0A1590008A95900080D
:10599000B1590008B9590008C1590008C95900088F
:1059A000002387F8433050E0042387F843304CE06D
:1059B000082387F8433048E0102387F8433044E059
:1059C000202387F8433040E0402387F843303CE011
:1059D000802387F8433038E07B691B685B4A934239
:1059E00030D1574B9B6D03F00703052B26D801A23E
:1059F00052F823F00D5A0008155A00081D5A0008E5
:105A0000255A00082D5A0008355A0008022387F845
:105A100043301AE0042387F8433016E0082387F860
:105A2000433012E0102387F843300EE0202387F83C
:105A300043300AE0402387F8433006E0802387F8AC
:105A4000433002E0802387F843307B691B683F4A7C
:105A5000934240F0F88097F84330202B46DC022B2D
:105A6000C0F28280023B1E2B7ED801A252F823F0A6
:105A7000F35A0008695B0008FB5A0008695B0008DC
:105A8000695B0008695B00080B5B0008695B000844
:105A9000695B0008695B0008695B0008695B0008D6
:105AA000695B0008695B00081B5B0008695B000814
:105AB000695B0008695B0008695B0008695B0008B6
:105AC000695B0008695B0008695B0008695B0008A6
:105AD000695B0008695B0008695B0008695B000896
