:020000040800F2
:100000000000022029780008591D0008611D000821
:10001000691D0008711D0008791D0008000000001E
:10002000000000000000000000000000811D00082A
:100030008F1D0008000000009D1D0008AB1D00087A
:100040007D7800087D7800087D7800087D780008BC
:100050007D7800087D7800087D7800087D780008AC
:100060007D7800087D780008B71D00087D780008BD
:100070007D7800087D7800087D7800087D7800088C
:100080007D7800087D7800087D7800087D7800087C
:100090007D7800087D7800087D7800087D7800086C
:1000A0007D7800087D7800087D7800087D7800085C
:1000B0007D7800087D7800087D7800087D7800084C
:1000C0007D7800087D7800087D7800087D7800083C
:1000D0007D7800087D7800087D7800087D7800082C
:1000E0007D7800087D780008000000007D78000819
:1000F0007D7800087D7800087D7800087D7800080C
:100100007D7800087D7800087D7800087D780008FB
:100110007D7800087D7800087D7800087D780008EB
:100120007D7800087D7800087D7800087D780008DB
:100130007D7800087D7800087D7800087D780008CB
:1001400000000000000000000000000000000000AF
:100150007D7800087D7800087D7800087D780008AB
:100160007D7800087D7800087D7800087D7800089B
:100170007D7800087D7800087D7800087D7800088B
:100180007D7800087D7800087D7800087D7800087B
:100190007D7800087D7800087D7800087D7800086B
:1001A0007D7800087D7800087D7800087D7800085B
:1001B0007D7800087D7800087D7800087D7800084B
:1001C0007D7800087D7800087D7800087D7800083B
:1001D0007D7800087D7800087D7800087D7800082B
:1001E0007D7800087D7800087D7800087D7800081B
:1001F0007D7800087D7800087D7800087D7800080B
:100200007D7800087D7800087D7800087D780008FA
:100210007D7800087D7800087D7800087D780008EA
:100220007D7800087D7800087D78000800000000D7
:100230007D7800087D780008000000007D780008C7
:100240007D7800087D7800087D7800087D780008BA
:100250007D7800087D7800087D7800087D780008AA
:100260007D7800087D7800087D7800087D7800089A
:100270007D7800087D7800087D7800080000000087
:100280007D7800087D7800087D7800080000000077
:08029000000000007D78000869
:1002C00053B94AB9002908BF00281CBF4FF0FF31BD
:1002D0004FF0FF3000F00CB8ADF1080C6DE904CE22
:1002E00007F0CEFADDF804E0DDE9022304B0704740
:1002F000704700BF00000000000000000000000088
:1003000030B490F800F020F007016FF0000C10F00E
:10031000070491F820F040F048804FF000046FF09F
:100320000700D1E9002391F840F000F1080082FABB
:100330004CF2A4FA8CF283FA4CF3A2FA8CF34BBB86
:10034000D1E9022382FA4CF200F10800A4FA8CF2FF
:1003500083FA4CF3A2FA8CF3E3B9D1E9042382FACD
:100360004CF200F10800A4FA8CF283FA4CF3A2FAE2
:100370008CF37BB9D1E9062301F1200182FA4CF21A
:1003800000F10800A4FA8CF283FA4CF3A2FA8CF381
:10039000002BC6D0002A04BF04301A4612BAB2FAA3
:1003A00082F200EBD20030BC7047D1E9002304F0A8
:1003B0000305C4F100004FEAC50514F0040F91F8DD
:1003C00040F00CFA05F562EA05021CBF63EA05037A
:1003D00062464FF00004AAE70000000000000000A1
:1003E00001F0FF01102A2BDB10F0070F08D010F8E6
:1003F000013B013A8B422DD010F0070F42B3F6D1EA
:10040000F0B441EA012141EA014122F007047FF002
:1004100000070023F0E80256083C85EA010586EA59
:10042000010685FA47F5A3FA87F586FA47F6A5FA95
:1004300087F68EB9EED1F0BC01F0FF0102F00702A1
:1004400032B110F8013B013A83EA010313B1F8D14C
:100450000020704701387047002D06BF354603382D
:10046000073815F0010F07D1013015F4807F02BF66
:10047000013015F4C03F0130F0BC0138704700BFB7
:10048000844641EA000313F003036DD1403A41D39F
:1004900051F8043B40F8043B51F8043B40F8043B5E
:1004A00051F8043B40F8043B51F8043B40F8043B4E
:1004B00051F8043B40F8043B51F8043B40F8043B3E
:1004C00051F8043B40F8043B51F8043B40F8043B2E
:1004D00051F8043B40F8043B51F8043B40F8043B1E
:1004E00051F8043B40F8043B51F8043B40F8043B0E
:1004F00051F8043B40F8043B51F8043B40F8043BFE
:1005000051F8043B40F8043B51F8043B40F8043BED
:10051000403ABDD2303211D351F8043B40F8043B8D
:1005200051F8043B40F8043B51F8043B40F8043BCD
:1005300051F8043B40F8043B103AEDD20C3205D39D
:1005400051F8043B40F8043B043AF9D2043208D095
:10055000D2071CBF11F8013B00F8013B01D30B8807
:1005600003806046704700BF082A13D38B078DD0E5
:1005700010F003038AD0C3F10403D21ADB071CBFB7
:1005800011F8013B00F8013B80D331F8023B20F821
:10059000023B7BE7043AD9D3013A11F8013B00F85A
:1005A000013BF9D20B7803704B7843708B788370E2
:1005B000604670470348044B834202D0034B03B1AB
:1005C00018477047E4060020E40600200000000001
:1005D0000548064B1B1AD90F01EBA301491002D0A5
:1005E000034B03B118477047E4060020E4060020DF
:1005F0000000000010B5064C237843B9FFF7DAFF7E
:10060000044B13B10448AFF300800123237010BDE5
:10061000E406002000000000ECD4000808B5054BFB
:100620001BB105490548AFF30080BDE80840FFF75E
:10063000CFBF00BF00000000E8060020ECD4000897
:10064000024A0349034800F0C9B800BF0000002077
:10065000CD120008100000200C4B4168994210B5E3
:10066000044601D000F032FEA168094B994202D045
:10067000204600F02BFEE168064B994204D020464C
:10068000BDE8104000F022BE10BD00BF00070020F2
:1006900068070020D00700202DE9F843314A324C8A
:1006A0003249DFF8DC90DFF8DC80314F1160002543
:1006B00004232946082204F15C00C4E903352D4EC9
:1006C000A560C4E90055C4E90555656600F0F0F879
:1006D00004F15800C4E90749C4E90987E66200F05B
:1006E000B1F92946244B6367082204F1C400C4E928
:1006F0001A55C4E91E552567C4F8CC50C4F880507B
:1007000000F0D6F804F1680304F1C000C4F88430A6
:10071000C4E92298C4E9247600F094F9174BC4F890
:10072000DC30294604F596700822C4E93455C4E942
:100730003855C4F8D850C4F83451C4F8E85000F023
:10074000B7F804F1D003C4E93D87C4F8F09004F58C
:100750009470C4F8FC60C4F8EC30BDE8F84300F0D5
:1007600071B900BF380800200007002041060008CA
:1007700085080008A908000809000100120002000D
:10078000210800084508000810B504460A4800F092
:100790005DF9636B23B9094B094A1B68626323B196
:1007A000BDE81040044800F053B9FFF775FFBDE8FD
:1007B0001040014800F04CB94808002038080020DB
:1007C00059060008014800F041B900BF4808002060
:1007D000014800F03DB900BF480800202DE9F8436A
:1007E0000746884616464FF00009D6E90154013DF8
:1007F00010D4A389012B08D9B4F90E300133214656
:10080000384602D0C04749EA0009013D6B1C04F19B
:100810006804EED13668002EE7D14846BDE8F8837B
:1008200010B50C46B1F90E1000F0B8F8002803DB43
:10083000236D0344236510BDA38923F48053A38152
:1008400010BD00BF2DE9F0410C46B1F90C101F4658
:10085000CB05054616460BD421F48051A1813B46B9
:10086000B4F90E1032462846BDE8F04100F0ACB8AD
:10087000B4F90E100223002200F07AF8B4F90C103B
:10088000EAE700BF10B50C46B1F90E1000F070F8A1
:10089000B4F90C30421C0EBF23F4805343F4805350
:1008A0002065A38110BD00BFB1F90E1000F04EB855
:1008B000830730B546D08418844604E003F8011B52
:1008C0009D0704D09C46A4456346F7D130BD013A4C
:1008D0000244A2EB0C02032A29D9CCB204EB042473
:1008E0000F2A04EB04442FD9A2F1100C2CF00F0CAA
:1008F00003F11005AC44C3E90044C3E902441033DA
:100900006345F8D112F00C0F02F00F0E18D02EF044
:10091000030C9C44AEF104051A4642F8044B6245B0
:10092000FBD125F0030404330EF003022344002A14
:10093000CCD0C9B21A4403F8011B9342FBD130BD9D
:100940007246F4E70346C6E79646E0E738B5074D3A
:100950000022044608462A6006F032FF431C00D0FD
:1009600038BD2B68002BFBD0236038BD3C0800202D
:1009700038B50D46084C8446114628461A460023D1
:100980002360654606F043FF431C00D038BD236852
:10099000002BFBD02B6038BD3C08002038B50D463D
:1009A000084C8446114628461A46002323606546B3
:1009B00006F0CDFE431C00D038BD2368002BFBD0D1
:1009C0002B6038BD3C08002038B50D46084C8446E5
:1009D000114628461A4600232360654606F0D4FED9
:1009E000431C00D038BD2368002BFBD02B6038BDE2
:1009F0003C08002070B50F4B0F4DAB42A3EB050632
:100A000007D0B610002455F8043B01349847A6429D
:100A1000F9D80CF06BFD094D094B5E1BAB424FEA58
:100A2000A60606D0002455F8043B01349847A64298
:100A3000F9D870BD8CD900088CD900088CD9000871
:100A400094D90008704700BF704700BF704700BFCF
:100A5000704700BF024B13B1024800F005B8704761
:100A60000000000039150008002301461A46184608
:100A700000F084BD2DE9F84306460820894600F0C1
:100A80006FFDDFF8A4800546304600F013FCD8F86F
:100A900008305F6827F00307A7F11104A4EB0904ED
:100AA0002C44B4FBF5F4013C05FB04F4A54208DC3E
:100AB0000021304600F02EFDD8F808303B44984223
:100AC00005D0304600F0FCFB0020BDE8F883614211
:100AD000304600F01FFD01300FD0114AD8F8083021
:100AE0003F1B47F001075F60136830461B1B136014
:100AF00000F0E6FB0120BDE8F8830021304600F05D
:100B000009FDD8F80820831A0F2BDADD43F0010322
:100B10005360044B02491B68C01A0860D1E700BF4C
:100B200050080020540100206001002000295BD003
:100B3000F8B50C46074600F0BDFB54F804CC744DE4
:100B4000A4F108022CF00103D118A8684E6888426D
:100B500026F003060CF0010E7ED088194E60406826
:100B600000F00100BEF1000F2FD154F8084C121B09
:100B70002344946805F1080C644562D0D2F80CE077
:100B8000C4F80CE0CEF8084000287FD043F0010004
:100B900050600B60B3F5007F2FD2D90868685C09FC
:100BA0000131012309B2A34003436B6055F83100C2
:100BB000906005EBC103083BD36045F83120C2606B
:100BC0003846BDE8F84000F07BBB70B9334405F10E
:100BD000080C8868604543F0010471D0C968C160A1
:100BE00088605460D350D5E770474CF00101B3F5ED
:100BF000007F44F8041CD350CFD3B3F5206F4FEAE5
:100C0000532045D2980900F1390109B200F13804A6
:100C1000C900681869580838884203D157E08968C4
:100C2000884204D04C6824F003049C42F7D8C8687A
:100C3000C2E9021082603846CA60BDE8F84000F0A0
:100C40003FBB88BB1E44D1E90213CB60996046F0DC
:100C5000010353609651B3E71E44BEF1000F07D164
:100C600054F8083CD21A1E44D2E90213CB609960B2
:100C700046F001035360274BAA601B68B3429FD81C
:100C8000254B38461968FFF7F5FE99E73344A0E78E
:100C900014280ED9542821D8180B00F16F0109B27D
:100CA00000F16E04C900B4E743F0010050600B602E
:100CB00086E700F15C0109B200F15B04C900A8E716
:100CC000C5E90422C2E902CC5460D35078E76E68CB
:100CD000A4100123A34033436B60A9E7B0F5AA7FBA
:100CE00007D8D80B00F1780109B200F17704C900E8
:100CF0008FE740F25451884206D8980C00F17D01EC
:100D000000F17C04C90084E74FF47E717E2480E703
:100D10006001002058010020800800202DE9F04FDC
:100D200001F10B05162D83B0064623D8102900F2D9
:100D3000B48000F0BFFA102518230220B84F3B44BE
:100D4000A3F108025C68944200F064816368E26881
:100D5000A16823F00303CA602344304691605A68B7
:100D600042F001025A6000F0ABFA0834204603B0AA
:100D7000BDE8F08F35F0070500F18F80A94200F241
:100D80008C8000F097FAB5F5FC7FC0F0B8815FEA7F
:100D9000552E00F08980BEF1040F00F270814FEAF9
:100DA000951E0EF1390003B20EF1380EDB009C4F98
:100DB0003B44A3F1080C5C68A44507D10DE0002A70
:100DC000E16880F221818C4507D00C46636823F0EE
:100DD00003035A1B0F2AF2DD7046DFF85C823C6980
:100DE000444500F0FE80636823F0030CACEB050380
:100DF0000F2B00F38981002BC7E9048880F27381EF
:100E0000BCF5007FD7F804E080F018814FEADC03DE
:100E1000013319B24FEA5C1C012303FA0CF357F8B3
:100E20003120A2604EEA030E07EBC103083BE360EA
:100E3000C7F804E047F83140D46083104FF0010C4C
:100E40000CFA03FCF44535D81CEA0E0F08D120F04B
:100E500003004FEA4C0C1CEA0E0F00F10400F8D01E
:100E600007EBC00AD6468146DEF80C300BE0596825
:100E700021F003014A1B0F2A1C46DB6800F30F8197
:100E8000002A80F223819E45F1D109F1010919F070
:100E9000030F0EF1080EE7D161E10C23336000244B
:100EA000204603B0BDE8F08F4FF4007340204FF0B0
:100EB0003F0E7CE7BC68636823F00309A94504D3AF
:100EC000A9EB05030F2B00F38F80564B1B680820FE
:100ED00003F1100804EB0903009300F041FB524AB0
:100EE00013680133A844834605D008F1FF388044D5
:100EF000434203EA08084146304600F00BFBB0F1DC
:100F0000FF3F494A824600F01B8104EB09038342FC
:100F100000F21481454B186840440BF1FF3C186007
:100F200000F072811168013100F07A8104EB09024E
:100F3000AAEB020202441A601AF00702CDE900236C
:100F400000F03281C2F108029244D04408EA0C0158
:100F50005A44521A02EA0C0B5946304600F0DAFAAB
:100F6000421C019B00F07981A0EB0A0000EB0B080A
:100F70001868C7F808A048F001025844BC42CAF8F3
:100F80000420186016D0B9F10F0F40F24C8161684F
:100F9000A9F10C0222F0070201F001011143616086
:100FA0004FF0050CA1180F2AC1E901CC00F25D81B8
:100FB000DAF804201E4B1968814238BF18601D4BB7
:100FC0001968814238BF1860544622F00308A845CA
:100FD000A8EB050301D30F2B06DC304600F070F9B7
:100FE0005DE7D7F804E028E7621943F0010345F014
:100FF000010565603046BA60536000F061F908345D
:10100000204603B0BDE8F08FA2682344D16030468B
:101010008A60A4E6DC68A3427FF498AE0230DCE686
:1010200060010020800800205401002050080020AA
:101030007C0800207808002068010020BCF5206FA3
:101040004FEA5C2272D3142A00F2C18002F15C03E1
:101050001BB25B32DB00F918FB580839994203D107
:1010600098E09B68994204D05A6822F003026245D6
:10107000F7D8D968C4E902318C60DC60DDE6BEF1E6
:10108000140F60D9BEF1540F00F2AB804FEA153E49
:101090000EF16F0003B20EF16E0EDB0087E6D4F89E
:1010A00008C03046661945F001056560CCF80C3083
:1010B000C3F808C042F00103C7E90466C6E9028824
:1010C0007360625000F0FCF80834E9E621443046D1
:1010D0004A6842F001024A6054F8082FD3609A60CF
:1010E00000F0EEF8DCE6A4443046DCF8043043F0CF
:1010F0000103CCF8043000F0E3F80834D0E6E80847
:10110000431C1BB2DB0019E6621943F0010145F0F4
:10111000010565603046C7E90422C2E902885160D2
:1011200044F80C3000F0CCF80834B9E64FEA9C12D1
:1011300002F139031BB23832DB008CE7BC425CD0D1
:10114000BC68626841E70EF15C0003B20EF15B0E11
:10115000DB002CE65AF80839534540F0A68010F021
:10116000030F00F1FF30F5D17B6823EA0C037B60AD
:101170004FEA4C0C9C453FF69DAEBCF1000F04D1EC
:1011800098E64FEA4C0C09F104091CEA030FF8D069
:10119000484665E692104FF0010C0CFA02F24EEA56
:1011A000020EC7F804E065E70AEB080202EA0C0247
:1011B000ABEB020202EA0C0B5946304600F0AAF9EA
:1011C000431C019B7FF4D0AEDDF800B0D0E6542A7A
:1011D0002DD84FEA1C3202F16F031BB26E32DB00D6
:1011E00039E7BEF5AA7F2DD84FEAD53E0EF178003B
:1011F00003B20EF1770EDB00D9E52D4B18684044A1
:101200000BF1FF3C18608DE61AEA0C0F7FF48AAEF2
:10121000D7F808A0C84448F00102CAF80420C9E67B
:10122000C2F800A088E60123CAF80430D5E6B2F57A
:10123000AA7F25D84FEADC3202F178031BB277325D
:10124000DB0008E740F254539E4524D8AB0C03F171
:101250007D0003F17C0EC300A9E5009A083A904492
:10126000A8EB0A084FF0000B82E6304604F10801B3
:101270000093FFF75BFC009BD7F808A0186897E67F
:1012800040F254539A420CD84FEA9C4202F17D033B
:10129000DB007C32DFE64FF47E737F204FF07E0E62
:1012A00085E54FF47E737E22D5E67B6860E700BF5C
:1012B000500800200148FFF7C9BB00BF40080020CC
:1012C0000148FFF7C5BB00BF4008002070B50029EA
:1012D0003FD006460C4610B1436B002B3CD0636EEA
:1012E000B4F90C20DD0732D4900538D521463046BC
:1012F00000F04CF8E36A054633B1E169304698479F
:101300000028B8BF4FF0FF35A3891A0639D4216BE6
:1013100041B104F14003994202D03046FFF706FC88
:1013200000232363616C21B13046FFF7FFFB0023EC
:101330006364FFF747FA636E0022DB07A2811CD5C6
:10134000A06DFFF781FBFFF743FA284670BD002A26
:10135000CCD10025284670BDFFF716FABFE7A06D77
:10136000FFF774FBB4F90C30002BBFD1636ED907C3
:10137000EFD4A06DFFF76CFBEBE7A06DFFF768FB08
:10138000DEE721693046FFF7D1FBC0E7B1F90C2059
:101390002DE9F04115070C4680464ED4496842F4C9
:1013A00000630029A38163DDA66A002E42D00021DC
:1013B00012F48052D8F80050C8F8001065D1E169E5
:1013C00001234046B0470246501C6CD0B4F90C30A3
:1013D000A66A590705D56368D21A236B0BB1E36B74
:1013E000D21A0023E1694046B047421CB4F90C30E0
:1013F0004DD1D8F800101D2940D8304ACA40D7072F
:101400003CD52269226023F40062A281DE044FF001
:101410000002626001D5002943D0216BC8F800505A
:1014200041B104F14003994202D04046FFF77EFBF0
:10143000002323630020BDE8F0810E69002EF9D05F
:101440000D680E6092070CBF4B690023AD1B8B60CB
:101450000BE02B463246E169676A4046B847B0F177
:10146000000CA5EB0C05664406DD002DF1DCE1E780
:10147000E16B002998DCDDE7B4F90C3043F0400360
:10148000A3814FF0FF30BDE8F081226DA1E7226912
:10149000226023F40062A281DB044FF0000262604C
:1014A000BBD52065B9E7D8F80030002B8ED01D2BB6
:1014B00001D0162BE0D1C8F80050BBE70100402056
:1014C00038B50C46054608B1436B03B3B4F90C00BC
:1014D00088B1636EDB0701D481050FD5284621460C
:1014E000FFF754FF636EDA07054602D4A3899B0514
:1014F00008D5284638BD0546284638BDA06DFFF7FB
:10150000A5FAEBE7A06DFFF7A3FA284638BDFFF771
:101510003BF9DBE738B5074D0022044608462A6050
:1015200006F0BCF8431C00D038BD2B68002BFBD064
:10153000236038BD3C08002038B5074D074C2C1BF4
:10154000A41005D0013C55F8043D9847002CF9D172
:10155000BDE838400BF0D0BF98D9000894D90008F6
:10156000082802D14FF48050704708B500F046F8C3
:10157000162303604FF0FF3008BD00BF2DE9F8438C
:101580001B4D0646286898460F469146FFF75EFABF
:10159000184B1C681CB3286865681F2D22DC4EB9E7
:1015A0006B1C0235636044F82570FFF751FA002088
:1015B000BDE8F88304EB85010123C1F88890D4F8D5
:1015C0008821AB401A43022EC4F88821C1F8088153
:1015D000E6D1D4F88C211A43C4F88C21E0E7064CFC
:1015E0001C60D8E7FFF734FA4FF0FF30E0E700BFA8
:1015F000500100204C08002084080020014B18688E
:10160000704700BF0C00002080B487B000AF786046
:1016100000233B617B6803F40003002B04D07B684C
:1016200043F07F437B6101E07B687B617B6907EE70
:10163000903AF8EEE77A9FED0A7A27EE877ADFEDA7
:10164000096AC7EE267AC7ED037AFB6807EE903A7F
:10165000B0EE670A1C37BD465DF8047B704700BFDB
:101660006F1203400000004B80B594B002AF0346F8
:10167000FB71FB7987F8443007F1400207F1440120
:101680006423009301230D4804F0C0F90346002BA6
:1016900001D000F05BFB97F844301A4697F84030D1
:1016A00007F10C00064906F067FA07F10C0318462B
:1016B00000F07AFA00BF4837BD4680BD680A0020B6
:1016C00008D5000880B586B002AF0346FB71FB79F0
:1016D0003B7307F1080207F10C0164230093012317
:1016E000064804F093F90346002B01D000F02EFBCE
:1016F0003B7A18461037BD4680BD00BF680A0020FF
:1017000080B500AF00F0F6FA03F09AFF00F04AF857
:1017100000F0C4F800F002F900F072F91E4800F081
:1017200043FA012004F01EF8002210211B4803F0A8
:1017300019FF0620FFF798FF012004F013F843205B
:10174000FFF792FF0020FFF78FFFD420FFF78CFFF9
:101750001720FFF789FFA020FFF786FF012004F084
:1017600001F82320FFF780FF012003F0FBFF082092
:10177000FFF77AFF012003F0F5FF0122102107484F
:1017800003F0F0FE012003F0EDFF054800F00CFA35
:1017900000F082F900BFFDE724D5000800040258DC
:1017A00034D5000880B59CB000AF07F124034C226B
:1017B00000211846FFF77CF83B1D20220021184627
:1017C000FFF776F8022003F001FF00233B60314B66
:1017D000DB6A304A23F00103D3622E4BDB6A03F04D
:1017E00001033B602C4B9B6923F440432A4A43F49A
:1017F00080439361284B9B6903F440433B603B6803
:1018000000BF254B9B6903F40053B3F5005FF8D18B
:1018100002237B6201233B6340237B630223BB647F
:101820000023FB6404233B650A237B650223BB651D
:101830000223FB6502233B660C237B660223BB6607
:101840000023FB6607F12403184600F0C9FE034697
:10185000002B01D000F07AFA3F237B600023BB60AD
:101860000023FB6000233B6100237B614023BB61BD
:101870000023FB6100233B623B1D0121184601F060
:1018800009FB0346002B01D000F060FA00BF70375F
:10189000BD4680BD000400580048025880B500AF26
:1018A0001B4B1C4A1A601A4B1B4A5A60184B0022E9
:1018B0009A60174B0122DA60154B00221A61144B13
:1018C00000225A61124B00229A61114B0022DA6108
:1018D0000F4B00221A620E4800F04EFD0346002B0B
:1018E00001D000F033FA0021094800F0E1FD034681
:1018F000002B01D000F02AFA0021054800F023FE59
:101900000346002B01D000F021FA00BF80BD00BFCC
:10191000140A002000540040BB7C700080B586B0E3
:1019200000AF344B344A1A60324B4FF480025A6095
:10193000304B00229A602F4B0722DA602D4B002299
:101940001A612C4B4FF080725A612A4B4FF0806223
:101950009A61284B4FF08042DA61264B00221A62CE
:10196000244B00225A62234B00229A62214B072209
:10197000DA62204B00225A631E4B0022DA631D4BB1
:101980004FF000425A651B4803F01CFF0346002B32
:1019900001D000F0DBF93B1D00221A605A609A600A
:1019A000DA601A6110237B600123BB600123FB60B6
:1019B00002233B613B1D1946104803F023FC012222
:1019C00010210E4803F0CEFD20237B600123BB6075
:1019D0000123FB6002233B613B1D1946074803F0CE
:1019E00011FC01222021054803F0BCFD00BF18377F
:1019F000BD4680BD680A0020003001400004025846
:101A000080B500AF224B234A1A60214B4FF4E132DC
:101A10005A601F4B00229A601D4B0022DA601C4B5B
:101A200000221A611A4B0C225A61194B00229A614A
:101A3000174B0022DA61164B00221A62144B002267
:101A40005A62134B00229A62114804F002FC0346CA
:101A5000002B01D000F07AF900210D4805F09BFC25
:101A60000346002B01D000F071F90021084805F071
:101A7000D0FC0346002B01D000F068F9044805F0C3
:101A80004FFC0346002B01D000F060F900BF80BD81
:101A9000F00A0020004C004080B58AB000AF07F18A
:101AA000140300221A605A609A60DA601A613B4B94
:101AB000D3F8E030394A43F01003C2F8E030374B36
:101AC000D3F8E03003F010033B613B69334BD3F8AC
:101AD000E030324A43F08003C2F8E0302F4BD3F8B5
:101AE000E03003F08003FB60FB682C4BD3F8E03060
:101AF0002A4A43F00103C2F8E030284BD3F8E03023
:101B000003F00103BB60BB68244BD3F8E030234AE9
:101B100043F00803C2F8E030204BD3F8E03003F084
:101B200008037B607B681D4BD3F8E0301B4A43F011
:101B30000203C2F8E030194BD3F8E03003F002039F
:101B40003B603B6800220821154803F00BFD082389
:101B50007B610123BB610023FB6100233B6207F132
:101B6000140319460E4803F04DFB10237B614FF41C
:101B70008813BB610123FB6107F11403194609486F
:101B800003F040FB002201210A2000F048FB0A205C
:101B900000F05FFB00BF2837BD4680BD00440258FF
:101BA00000100258000C025880B582B000AF786077
:101BB0007868FEF7A5FB03469AB264237968034868
:101BC00004F097FB00BF0837BD4680BDF00A002037
:101BD00080B594B000AF0346FB80FB88102B75D115
:101BE000002210213E4803F0BDFC0023FB64FF20CF
:101BF000FFF768FD034687F84B30FF20FFF762FDD3
:101C0000034687F84A30FF20FFF75CFD034687F85C
:101C1000493097F84B301A0497F84A301B021A43A0
:101C200097F849301343FB64012210212C4803F03C
:101C300099FCF86CFFF7E8FC87ED110AD7ED117AF3
:101C40009FED287A67EE877AB7EEE77A9FED226BF1
:101C500037EE067BF7EEC77BC7ED107A224B93ED8C
:101C6000007AD7ED107A77EE277A1F4BC3ED007A12
:101C70001E4B1B6801331D4A13601C4B1B68B3F5D8
:101C80007A7F23D3184BD3ED006A184B1B6807EEFD
:101C9000903AB8EE677AC6EE877AC7ED0F7AD7ED3D
:101CA0000F7AB7EEE77A07F1080053EC172B1049CB
:101CB00005F062FF07F108031846FFF775FF0A4BAE
:101CC0004FF000021A60094B00221A6000BF503723
:101CD000BD4680BDAFF300808B6CE7FBA9F1D23F1E
:101CE0000004025800007A45880B0020840B002075
:101CF0004CD5000880B584B000AF3B4600221A6086
:101D00005A609A60DA6000F0BFFA01233B7000234A
:101D10007B7000237B601F233B7287237B72002331
:101D2000BB720023FB7201233B7301237B730023EF
:101D3000BB730023FB733B46184600F0DDFA04201A
:101D400000F0BAFA00BF1037BD4680BD80B400AFC6
:101D500072B600BF00BFFDE780B400AF00BFFDE773
:101D600080B400AF00BFFDE780B400AF00BFFDE767
:101D700080B400AF00BFFDE780B400AF00BFFDE757
:101D800080B400AF00BFBD465DF8047B704780B4EF
:101D900000AF00BFBD465DF8047B704780B400AF64
:101DA00000BFBD465DF8047B704780B500AF03F00F
:101DB000B9FC00BF80BD80B500AF102003F0EBFB85
:101DC00000BF80BD80B483B000AF0A4BD3F8F430BD
:101DD000084A43F00203C2F8F430064BD3F8F4305B
:101DE00003F002037B607B6800BF0C37BD465DF8E3
:101DF000047B70470044025880B5BAB000AF7860E9
:101E000007F1D40300221A605A609A60DA601A61FE
:101E100007F11003C02200211846FEF749FD7B6838
:101E20001B68264A934245D14FF008024FF0000349
:101E3000C7E904230023C7F8943007F110031846BC
:101E400001F0B4FB0346002B01D0FFF77FFF1C4BD2
:101E5000D3F8E0301A4A43F00203C2F8E030184BDE
:101E6000D3F8E03003F00203FB60FB68C023C7F83F
:101E7000D4301223C7F8D8300023C7F8DC30002351
:101E8000C7F8E0300423C7F8E43007F1D40319465B
:101E90000C4803F0B7F90A4BD3F8E830084A43F48A
:101EA0000013C2F8E830064BD3F8E83003F400130F
:101EB000BB60BB6800BFE837BD4680BD0054004032
:101EC000004402580004025880B5BAB000AF7860F0
:101ED00007F1D40300221A605A609A60DA601A612E
:101EE00007F11003C02200211846FEF7E1FC7B68D1
:101EF0001B68264A934244D14FF480524FF00003AE
:101F0000C7E9042300233B6707F11003184601F0DB
:101F10004DFB0346002B01D0FFF718FF1C4BD3F8F5
:101F2000F0301B4A43F48053C2F8F030184BD3F81A
:101F3000F03003F48053FB60FB68154BD3F8E030BE
:101F4000134A43F00103C2F8E030114BD3F8E030FC
:101F500003F00103BB60BB68E023C7F8D430022361
:101F6000C7F8D8300023C7F8DC300023C7F8E030CA
:101F70000523C7F8E43007F1D4031946054803F0F8
:101F800041F900BFE837BD4680BD00BF00300140C9
:101F9000004402580000025880B5BAB000AF786023
:101FA00007F1D40300221A605A609A60DA601A615D
:101FB00007F11003C02200211846FEF779FC7B6868
:101FC0001B68264A934245D14FF002024FF00003AE
:101FD000C7E904230023C7F8883007F11003184627
:101FE00001F0E4FA0346002B01D0FFF7AFFE1C4BD3
:101FF000D3F8E8301A4A43F40023C2F8E830184B0B
:10200000D3F8E83003F40023FB60FB68144BD3F8EB
:10201000E030134A43F00103C2F8E030104BD3F82C
:10202000E03003F00103BB60BB680323C7F8D43082
:102030000223C7F8D8300023C7F8DC300023C7F8E4
:10204000E0300823C7F8E43007F1D4031946054807
:1020500003F0D8F800BFE837BD4680BD004C004013
:10206000004402580000025880B485B000AF786088
:102070007B6803F00703FB600B4BDB68BB60BA684F
:102080004FF6FF031340BB60FB681A02BB681A439C
:10209000064B1343BB60044ABB68D36000BF1437D0
:1020A000BD465DF8047B704700ED00E00000FA05D6
:1020B00080B400AF044BDB681B0A03F0070318462B
:1020C000BD465DF8047B704700ED00E080B483B04E
:1020D00000AF0346FB80B7F90630002B0BDBFB8813
:1020E00003F01F020749B7F906305B09012000FA27
:1020F00002F241F8232000BF0C37BD465DF8047B97
:10210000704700BF00E100E080B483B000AF034639
:102110003960FB80B7F90630002B0ADB3B68DAB286
:102120000C49B7F906301201D2B20B4483F80023F0
:102130000AE03B68DAB20849FB8803F00F03043B6E
:102140001201D2B20B441A7600BF0C37BD465DF8BF
:10215000047B704700E100E000ED00E080B489B04E
:1021600000AFF860B9607A60FB6803F00703FB61B9
:10217000FB69C3F10703042B28BF0423BB61FB6980
:102180000433062B02D9FB69033B00E000237B618B
:102190004FF0FF32BB6902FA03F3DA43BB681A401F
:1021A0007B699A404FF0FF317B6901FA03F3D94311
:1021B0007B680B40134318462437BD465DF8047B0B
:1021C0007047000080B582B000AF78607B68013B4B
:1021D000B3F1807F01D301230FE00A4A7B68013B02
:1021E00053600F214FF0FF30FFF78EFF054B0022A9
:1021F0009A60044B07221A60002318460837BD4630
:1022000080BD00BF10E000E080B582B000AF786014
:102210007868FFF729FF00BF0837BD4680BD80B54D
:1022200086B000AF0346B9607A60FB81FFF740FFDC
:1022300078617A68B9687869FFF790FF0246B7F964
:102240000E3011461846FFF75FFF00BF1837BD4636
:1022500080BD80B582B000AF0346FB80B7F9063081
:102260001846FFF733FF00BF0837BD4680BD80B575
:1022700082B000AF78607868FFF7A4FF0346184685
:102280000837BD4680BD000080B400AFBFF35F8F4C
:1022900000BF074B5B6A064A23F480335362054B49
:1022A00000225A6000BFBD465DF8047B704700BF46
:1022B00000ED00E090ED00E080B483B000AF786006
:1022C0000B4A7B6843F0010353600A4B5B6A094A7F
:1022D00043F480335362BFF34F8F00BFBFF36F8F60
:1022E00000BF00BF0C37BD465DF8047B704700BFE0
:1022F00090ED00E000ED00E080B483B000AF7860C6
:102300007B685A781B4B9A601A4B1B69194A23F059
:1023100001031361174A7B685B68D3607B681B7B92
:102320001A077B68DB7A1B061A437B689B7ADB04FF
:102330001A437B685B7B9B041A437B689B7B5B0433
:102340001A437B68DB7B1B041A437B685B7A1B02A6
:102350001A437B681B7A5B0013437A681278114634
:10236000044A0B43136100BF0C37BD465DF8047B84
:10237000704700BF90ED00E080B582B000AF78609C
:102380007B68002B01D101238BE07B6893F84130FF
:10239000DBB2002B06D17B68002283F840207868EE
:1023A000FFF72AFD7B68242283F841207B681B68A5
:1023B0001A687B681B6822F001021A607B685A6801
:1023C0007B681B6822F070621A617B681B689A68E0
:1023D0007B681B6822F400429A607B68DB68012BF3
:1023E00007D17B689A687B681B6842F400429A6058
:1023F00006E07B689A687B681B6842F404429A6036
:102400007B68DB68022B08D17B681B685A687B6895
:102410001B6842F400625A6007E07B681B685A68D8
:102420007B681B6822F400625A607B681B685968ED
:102430007B681A681D4B0B4353607B681B68DA6826
:102440007B681B6822F40042DA607B681A697B684B
:102450005B6942EA03017B689B691A027B681B681F
:102460000A43DA607B68D9697B681A6A7B681B68F3
:102470000A431A607B681B681A687B681B6842F015
:1024800001021A607B6800225A647B68202283F86C
:1024900041207B6800221A637B68002283F8422077
:1024A000002318460837BD4680BD00BF00800002EB
:1024B00080B483B000AF786039607B6893F84130B6
:1024C000DBB2202B38D17B6893F84030012B01D14F
:1024D000022332E07B68012283F840207B682422BB
:1024E00083F841207B681B681A687B681B6822F0B0
:1024F00001021A607B681B681A687B681B6822F4FB
:1025000080521A607B681B6819687B681B683A6890
:102510000A431A607B681B681A687B681B6842F074
:1025200001021A607B68202283F841207B68002228
:1025300083F84020002300E0022318460C37BD46F4
:102540005DF8047B704780B485B000AF7860396077
:102550007B6893F84130DBB2202B39D17B6893F84C
:102560004030012B01D1022333E07B68012283F844
:1025700040207B68242283F841207B681B681A680E
:102580007B681B6822F001021A607B681B681B686D
:10259000FB60FB6823F47063FB603B681B02FA6816
:1025A0001343FB607B681B68FA681A607B681B68D2
:1025B0001A687B681B6842F001021A607B6820225F
:1025C00083F841207B68002283F84020002300E04C
:1025D000022318461437BD465DF8047B704700009F
:1025E00080B58CB000AF78607B68002B02D10123EE
:1025F00000F048BC7B681B6803F00103002B00F06F
:102600008880994B1B6903F03803FB62964B9B6AE9
:10261000BB62FB6A102B07D0FB6A182B11D1BB6A77
:1026200003F00303022B0CD18F4B1B6803F4003320
:10263000002B6DD07B685B68002B69D1012300F013
:1026400021BC7B685B68B3F5803F06D1864B1B6875
:10265000854A43F4803313602EE07B685B68002B6F
:102660000CD1814B1B68804A23F4803313607E4B6E
:102670001B687D4A23F4802313601DE07B685B6840
:10268000B3F5A02F0CD1784B1B68774A43F4802315
:102690001360754B1B68744A43F4803313600BE07E
:1026A000714B1B68704A23F4803313606E4B1B68B8
:1026B0006D4A23F4802313607B685B68002B13D082
:1026C00003F044F8786208E003F040F802467B6AC1
:1026D000D31A642B01D90323D4E3634B1B6803F49F
:1026E0000033002BF0D014E003F030F8786208E0FB
:1026F00003F02CF802467B6AD31A642B01D903231A
:10270000C0E3594B1B6803F40033002BF0D100E009
:1027100000BF7B681B6803F00203002B00F0CA8037
:10272000514B1B6903F038033B624F4B9B6AFB61C3
:102730003B6A002B07D03B6A182B56D1FB6903F08C
:102740000303002B51D1484B1B6803F00403002BFB
:1027500005D07B68DB68002B01D1012392E3424B5B
:102760001B6823F019027B68DB683F4913430B6049
:1027700002F0ECFF786208E002F0E8FF02467B6AB4
:10278000D31A022B01D903237CE3374B1B6803F0D8
:102790000403002BF0D003F009F8034641F20302D2
:1027A000934217D87B681B69402B08D12E4B5B687E
:1027B00023F47C332C4A43F4003353607AE02A4BF1
:1027C0005B6823F47C327B681B691B032649134337
:1027D0004B606FE0244B5B6823F0FE427B681B6913
:1027E0001B06214913434B6064E07B68DB68002BC8
:1027F00047D01D4B1B6823F019027B68DB681A4920
:1028000013430B6002F0A2FF786208E002F09EFF23
:1028100002467B6AD31A022B01D9032332E3124BFF
:102820001B6803F00403002BF0D002F0BFFF034647
:1028300041F20302934219D87B681B69402B08D1EF
:10284000094B5B6823F47C33074A43F4003353603D
:1028500030E0054B5B6823F47C327B681B691B030B
:10286000014913434B6025E0004402589A4B5B68D2
:1028700023F0FE427B681B691B06974913434B609C
:1028800018E0954B1B68944A23F00103136002F093
:102890005DFF786208E002F059FF02467B6AD31AB6
:1028A000022B01D90323EDE28B4B1B6803F00403D9
:1028B000002BF0D17B681B6803F01003002B00F0A5
:1028C000A980854B1B6903F03803BB61824B9B6A6F
:1028D0007B61BB69082B07D0BB69182B3AD17B6998
:1028E00003F00303012B35D17B4B1B6803F480738A
:1028F000002B05D07B68DB69802B01D00123C1E26E
:1029000002F054FF034641F20302934217D87B685A
:102910001B6A202B08D1704B5B6823F0F8436E4A8A
:1029200043F08043536075E06B4B5B6823F0F842E3
:102930007B681B6A9B06684913434B606AE0664BE1
:10294000DB6823F07C527B681B6A1B0662491343D9
:10295000CB605FE07B68DB69002B42D05E4B1B687D
:102960005D4A43F08003136002F0F0FE786208E0F5
:1029700002F0ECFE02467B6AD31A022B01D9032334
:1029800080E2554B1B6803F48073002BF0D002F0FB
:102990000DFF034641F20302934217D87B681B6A7E
:1029A000202B08D14C4B5B6823F0F8434A4A43F094
:1029B000804353602EE0484B5B6823F0F8427B680D
:1029C0001B6A9B06444913434B6023E0424BDB6880
:1029D00023F07C527B681B6A1B063F491343CB6084
:1029E00018E03D4B1B683C4A23F08003136002F063
:1029F000ADFE786208E002F0A9FE02467B6AD31AB7
:102A0000022B01D903233DE2334B1B6803F480738F
:102A1000002BF0D17B681B6803F00803002B36D035
:102A20007B685B69002B19D02B4B5B6F2A4A43F004
:102A30000103536702F08AFE786208E002F086FE26
:102A400002467B6AD31A022B01D903231AE2224BD6
:102A50005B6F03F00203002BF0D018E01E4B5B6F9E
:102A60001D4A23F00103536702F070FE786208E00C
:102A700002F06CFE02467B6AD31A022B01D90323B3
:102A800000E2154B5B6F03F00203002BF0D17B6873
:102A90001B6803F02003002B39D07B689B69002B57
:102AA0001CD00D4B1B680C4A43F48053136002F09A
:102AB0004DFE786208E002F049FE02467B6AD31AB6
:102AC000022B01D90323DDE1034B1B6803F4005300
:102AD000002BF0D01BE000BF004402589B4B1B684A
:102AE0009A4A23F48053136002F030FE786208E0C3
:102AF00002F02CFE02467B6AD31A022B01D9032373
:102B0000C0E1924B1B6803F40053002BF0D17B68AB
:102B10001B6803F00403002B00F081808C4B1B68C2
:102B20008B4A43F48073136002F010FE786208E071
:102B300002F00CFE02467B6AD31A642B01D90323F0
:102B4000A0E1834B1B6803F48073002BF0D07B68FB
:102B50009B68012B06D17D4B1B6F7C4A43F0010320
:102B600013672DE07B689B68002B0CD1774B1B6FA4
:102B7000764A23F001031367744B1B6F734A23F0EB
:102B8000040313671CE07B689B68052B0CD16F4B1B
:102B90001B6F6E4A43F0040313676C4B1B6F6B4A49
:102BA00043F0010313670BE0684B1B6F674A23F088
:102BB00001031367654B1B6F644A23F0040313671B
:102BC0007B689B68002B15D002F0C0FD78620AE09C
:102BD00002F0BCFD02467B6AD31A41F2883293426E
:102BE00001D903234EE1594B1B6F03F00203002B65
:102BF000EED014E002F0AAFD78620AE002F0A6FD31
:102C000002467B6AD31A41F28832934201D90323E8
:102C100038E14E4B1B6F03F00203002BEED17B68B3
:102C20005B6A002B00F02D81484B1B6903F03803D1
:102C3000182B00F0BD807B685B6A022B40F09E8001
:102C4000424B1B68414A23F08073136002F07EFD03
:102C5000786208E002F07AFD02467B6AD31A022B02
:102C600001D903230EE1394B1B6803F00073002BDD
:102C7000F0D1364B9A6A374B13407A68916A7A687A
:102C8000D26A12010A43314913438B627B681B6B82
:102C9000013BC3F308027B685B6B013B5B029BB2A9
:102CA0001A437B689B6B013B1B0403F4FE031A432E
:102CB0007B68DB6B013B1B0603F0FE432349134398
:102CC0000B63224BDB6A214A23F00103D3621F4BC3
:102CD0005A6B214B13407A68926CD2001B49134304
:102CE0004B631A4BDB6A23F00C027B681B6C1749A1
:102CF0001343CB62154BDB6A23F002027B685B6CEB
:102D000012491343CB62114BDB6A104A43F4803300
:102D1000D3620E4BDB6A0D4A43F40033D3620B4B94
:102D2000DB6A0A4A43F48023D362084BDB6A074A12
:102D300043F00103D362054B1B68044A43F08073E0
:102D4000136002F003FD786211E000BF00440258F6
:102D5000004802580CFCFFFF0700FFFF02F0F6FCE2
:102D600002467B6AD31A022B01D903238AE0474B20
:102D70001B6803F00073002BF0D082E0434B1B680C
:102D8000424A23F08073136002F0E0FC786208E0AE
:102D900002F0DCFC02467B6AD31A022B01D9032322
:102DA00070E03A4B1B6803F00073002BF0D168E031
:102DB000364B9B6A3B61354B1B6BFB607B685B6AE8
:102DC000012B31D03B6903F003027B689B6A9A4276
:102DD0002AD13B691B0903F03F027B68DB6A9A42F8
:102DE00022D1FB68C3F308027B681B6B013B9A424C
:102DF0001AD1FB685B0A03F07F027B685B6B013BC7
:102E00009A4211D1FB681B0C03F07F027B689B6B1D
:102E1000013B9A4208D1FB681B0E03F07F027B68DE
:102E2000DB6B013B9A4201D001232BE0174B5B6B1C
:102E3000DB08C3F30C033B617B689B6C3A699A42E5
:102E40001FD0124BDB6A114A23F00103D36202F058
:102E50007DFC786200BF02F079FC02467B6A9342F7
:102E6000F9D00A4B5A6B0A4B13407A68926CD20025
:102E7000064913434B63054BDB6A044A43F00103E5
:102E8000D362002318463037BD4680BD0044025847
:102E90000700FFFF80B586B000AF786039607B68BF
:102EA000002B01D101239CE18A4B1B6803F00F0327
:102EB0003A689A4210D9874B1B6823F00F02854964
:102EC0003B6813430B60834B1B6803F00F033A68A6
:102ED0009A4201D0012384E17B681B6803F004035C
:102EE000002B10D07B681A697B4B9B6903F0700341
:102EF0009A4208D9784B9B6923F070027B681B6962
:102F0000754913438B617B681B6803F00803002B32
:102F100010D07B685A69704BDB6903F070039A42EA
:102F200008D96D4BDB6923F070027B685B696A49E5
:102F30001343CB617B681B6803F01003002B10D098
:102F40007B689A69644BDB6903F4E0639A4208D9B1
:102F5000614BDB6923F4E0627B689B695E49134344
:102F6000CB617B681B6803F02003002B10D07B68CB
:102F7000DA69594B1B6A03F070039A4208D9564B21
:102F80001B6A23F070027B68DB69534913430B62B1
:102F90007B681B6803F00203002B10D07B68DA68A3
:102FA0004D4B9B6903F00F039A4208D94A4B9B692A
:102FB00023F00F027B68DB68474913438B617B6812
:102FC0001B6803F00103002B55D0434B9B6923F48E
:102FD00070627B689B68404913438B617B685B68C8
:102FE000022B07D13C4B1B6803F40033002B21D18B
:102FF0000123F6E07B685B68032B07D1364B1B6827
:1030000003F00073002B15D10123EAE07B685B68B5
:10301000012B07D1304B1B6803F48073002B09D1BF
:103020000123DEE02C4B1B6803F00403002B01D1CD
:103030000123D6E0284B1B6923F007027B685B68FD
:10304000254913430B6102F081FB78610AE002F02D
:103050007DFB02467B69D31A41F28832934201D943
:103060000323BEE01C4B1B6903F038027B685B68DE
:10307000DB009A42EBD17B681B6803F00203002B54
:1030800010D07B68DA68144B9B6903F00F039A42F7
:1030900008D2114B9B6923F00F027B68DB680E4955
:1030A00013438B610B4B1B6803F00F033A689A4282
:1030B00014D2084B1B6823F00F0206493B681343E8
:1030C0000B60044B1B6803F00F033A689A4205D06B
:1030D000012386E000200052004402587B681B68F0
:1030E00003F00403002B10D07B681A693F4B9B69E7
:1030F00003F070039A4208D23C4B9B6923F07002A4
:103100007B681B69394913438B617B681B6803F03B
:103110000803002B10D07B685A69344BDB6903F03D
:1031200070039A4208D2314BDB6923F070027B684E
:103130005B692E491343CB617B681B6803F0100366
:10314000002B10D07B689A69284BDB6903F4E0639D
:103150009A4208D2254BDB6923F4E0627B689B69C5
:1031600022491343CB617B681B6803F02003002BCB
:1031700010D07B68DA691D4B1B6A03F070039A421A
:1031800008D21A4B1B6A23F070027B68DB6917496F
:1031900013430B6200F034F80246144B9B691B0A80
:1031A00003F00F031249CB5C03F01F0322FA03F371
:1031B0003B610E4B9B6903F00F030D4AD35C03F098
:1031C0001F033A6922FA03F30A4A13600A4A3B6969
:1031D00013600A4B1B68184602F06EFA0346FB7335
:1031E000FB7B18461837BD4680BD00BF004402581F
:1031F00088D50008740500207005002068050020AF
:1032000080B489B000AFB34B1B6903F03803182BAF
:1032100000F2558101A252F823F000BF813200086C
:10322000BF340008BF340008BF340008BF340008B2
:10323000BF340008BF340008BF340008A7320008BC
:10324000BF340008BF340008BF340008BF34000892
:10325000BF340008BF340008BF340008AD32000896
:10326000BF340008BF340008BF340008BF34000872
:10327000BF340008BF340008BF340008B332000870
:10328000944B1B6803F02003002B09D0914B1B6863
:10329000DB0803F00303904A22FA03F3BB6111E158
:1032A0008D4BBB610EE18D4BBB610BE18C4BBB6168
:1032B00008E1884B9B6A03F003037B61854B9B6AA3
:1032C0001B0903F03F033B61824BDB6A03F0010300
:1032D000FB60804B5B6BDB08C3F30C03FA6802FBFB
:1032E00003F307EE903AF8EE677AC7ED027A3B698E
:1032F000002B00F0E1807B69022B00F083807B696A
:10330000022B00F2A1807B69002B03D07B69012B8B
:1033100056D099E06F4B1B6803F02003002B2DD093
:103320006C4B1B68DB0803F003036B4A22FA03F3C0
:103330007B607B6807EE903AF8EE676A3B6907EEC0
:10334000903AF8EE677A86EEA77A624B1B6BC3F36E
:10335000080307EE903AF8EE676A97ED026ADFED30
:10336000615AC6EE257A76EEA77AF7EE006A77EE16
:10337000A67A67EE277AC7ED077A87E03B6907EE02
:10338000903AF8EE677ADFED586A86EEA77A514BED
:103390001B6BC3F3080307EE903AF8EE676A97EDEC
:1033A000026ADFED505AC6EE257A76EEA77AF7EE7E
:1033B000006A77EEA67A67EE277AC7ED077A65E0AE
:1033C0003B6907EE903AF8EE677ADFED486A86EEE1
:1033D000A77A404B1B6BC3F3080307EE903AF8EE55
:1033E000676A97ED026ADFED3F5AC6EE257A76EE00
:1033F000A77AF7EE006A77EEA67A67EE277AC7ED2E
:10340000077A43E03B6907EE903AF8EE677ADFED22
:10341000386A86EEA77A2F4B1B6BC3F3080307EEBF
:10342000903AF8EE676A97ED026ADFED2E5AC6EE23
:10343000257A76EEA77AF7EE006A77EEA67A67EE3F
:10344000277AC7ED077A21E03B6907EE903AF8EE5C
:10345000677ADFED266A86EEA77A1E4B1B6BC3F3F5
:10346000080307EE903AF8EE676A97ED026ADFED1F
:103470001D5AC6EE257A76EEA77AF7EE006A77EE49
:10348000A67A67EE277AC7ED077A00BF114B1B6B50
:103490005B0A03F07F0301333B603B6807EE903A21
:1034A000B8EE677AD7ED076AC6EE877AFCEEE77A60
:1034B00017EE903ABB6105E00023BB6102E0074BC9
:1034C000BB6100BFBB6918462437BD465DF8047B6D
:1034D000704700BF004402580090D00300093D002F
:1034E00040787D01000000460024744C0024744A9A
:1034F00020BCBE4B80B582B000AFFFF781FE024614
:10350000104B9B691B0A03F00F030F49CB5C03F0C0
:103510001F0322FA03F37B600A4B9B6903F00F033E
:10352000094AD35C03F01F037A6822FA03F3074ABF
:103530001360074A7B681360044B1B681846083702
:10354000BD4680BD0044025888D50008740500209F
:103550007005002080B500AFFFF7CCFF0246064B98
:10356000DB691B0903F007030449CB5C03F01F036D
:1035700022FA03F3184680BD0044025888D500089B
:1035800080B500AFFFF7B6FF0246064BDB691B0AAA
:1035900003F007030449CB5C03F01F0322FA03F393
:1035A000184680BD0044025888D500082DE9B04F68
:1035B000CAB000AFC7F81401002387F827310023F1
:1035C00087F82631D7F81431D3E9002302F00064DC
:1035D000002554EA050349D0D7F814319B6EB3F5A2
:1035E000401F2FD0B3F5401F28D8B3F5001F1AD0C5
:1035F000B3F5001F22D8002B03D0B3F5801F07D0EE
:103600001CE0B84BDB6AB74A43F40033D3621AE0DC
:10361000D7F8143108330221184601F08FFC034615
:1036200087F827310FE0D7F81431283302211846E4
:1036300001F036FD034687F8273104E0012387F8BF
:10364000273100E000BF97F82731002B0AD1A54BA6
:103650001B6D23F44011D7F814319B6EA14A0B4324
:10366000136503E097F8273187F82631D7F814312E
:10367000D3E9002302F480784FF0000958EA0903E7
:1036800047D0D7F814319B6D042B2AD801A252F8E9
:1036900023F000BFA9360008B7360008CD36000871
:1036A000EB360008EB3600088E4BDB6A8D4A43F49C
:1036B0000033D3621AE0D7F81431083300211846DA
:1036C00001F03CFC034687F827310FE0D7F81431AE
:1036D00028330021184601F0E3FC034687F8273120
:1036E00004E0012387F8273100E000BF97F8273175
:1036F000002B0AD17B4B1B6D23F00701D7F8143147
:103700009B6D784A0B43136503E097F8273187F8E0
:103710002631D7F81431D3E9002302F4007A4FF0B0
:10372000000B5AEA0B034CD0D7F81431DB6DB3F51C
:10373000807F30D0B3F5807F29D8C02B2DD0C02B0F
:1037400025D8802B18D0802B21D8002B02D0402BDD
:1037500007D01CE0634BDB6A624A43F40033D36258
:103760001CE0D7F8143108330021184601F0E6FBBD
:10377000034687F8273111E0D7F8143128330021A8
:10378000184601F08DFC034687F8273106E0012337
:1037900087F8273102E000BF00E000BF97F827312B
:1037A000002B0AD14F4B1B6D23F4E071D7F8143175
:1037B000DB6D4C4A0B43136503E097F8273187F81C
:1037C0002631D7F81431D3E9002302F48063C7F817
:1037D00008310023C7F80C31D7E942120B461343D6
:1037E00053D0D7F81431D3F8A830B3F5000F35D043
:1037F000B3F5000F2ED8B3F5C00F31D0B3F5C00F1D
:1038000028D8B3F5800F1AD0B3F5800F22D8002B3B
:1038100003D0B3F5001F07D01CE0324BDB6A314AFE
:1038200043F40033D3621CE0D7F81431083300218D
:10383000184601F083FB034687F8273111E0D7F8DB
:10384000143128330021184601F02AFC034687F87A
:10385000273106E0012387F8273102E000BF00E0AE
:1038600000BF97F82731002B0BD11E4B9B6D23F423
:103870006001D7F81431D3F8A8301A4A0B43936586
:1038800003E097F8273187F82631D7F81431D3E9C8
:10389000002302F40063C7F800310023C7F80431A5
:1038A000D7E940120B46134356D0D7F81431D3F85A
:1038B000AC30B3F1806F38D0B3F1806F31D8B3F151
:1038C000407F34D0B3F1407F2BD8B3F1007F1DD0BF
:1038D000B3F1007F25D8002B06D0B3F1807F0AD04A
:1038E0001FE000BF00440258A24BDB6AA14A43F428
:1038F0000033D3621CE0D7F8143108330021184696
:1039000001F01CFB034687F8273111E0D7F814318A
:1039100028330021184601F0C3FB034687F82731FE
:1039200006E0012387F8273102E000BF00E000BF76
:1039300097F82731002B0BD18E4B9B6D23F0E06164
:10394000D7F81431D3F8AC308A4A0B43936503E0BF
:1039500097F8273187F82631D7F81431D3E90023B7
:1039600002F00073C7F8F8300023C7F8FC30D7E93D
:103970003E120B4613433AD0D7F81431DB6C302B90
:103980001FD0302B19D8202B0CD0202B15D8002B72
:1039900019D0102B11D1774BDB6A764A43F40033F0
:1039A000D36211E0D7F8143108330221184601F030
:1039B000C5FA034687F8273106E0012387F8273147
:1039C00002E000BF00E000BF97F82731002B0AD1CA
:1039D000684BDB6C23F03001D7F81431DB6C654A9F
:1039E0000B43D36403E097F8273187F82631D7F8E3
:1039F0001431D3E9002302F48053C7F8F0300023D8
:103A0000C7F8F430D7E93C120B46134351D0D7F82E
:103A100014311B6EB3F5804F35D0B3F5804F2ED8DF
:103A2000B3F5405F31D0B3F5405F28D8B3F5005F00
:103A30001AD0B3F5005F22D8002B03D0B3F5805F16
:103A400007D01CE04B4BDB6A4A4A43F40033D36295
:103A50001CE0D7F8143108330021184601F06EFA43
:103A6000034687F8273111E0D7F8143128330021B5
:103A7000184601F015FB034687F8273106E00123BD
:103A800087F8273102E000BF00E000BF97F8273138
:103A9000002B0AD1374B1B6D23F4E041D7F81431CA
:103AA0001B6E344A0B43136503E097F8273187F800
:103AB0002631D7F81431D3E9002302F40053C7F8B4
:103AC000E8300023C7F8EC30D7E93A120B4613432D
:103AD00056D0D7F814315B6EB3F5A02F33D0B3F5C1
:103AE000A02F2CD8B3F5802F2FD0B3F5802F26D858
:103AF000B3F5403F2BD0B3F5403F20D8B3F5003F9E
:103B000012D0B3F5003F1AD8002B22D0B3F5803F76
:103B100015D1D7F8143108330121184601F00EFAF7
:103B2000034687F8273115E0D7F8143128330121EF
:103B3000184601F0B5FA034687F827310AE0012359
:103B400087F8273106E000BF04E000BF02E000BFB5
:103B500000E000BF97F82731002B0DD1054B1B6DFE
:103B600023F4E021D7F814315B6E024A0B4313654E
:103B700006E000BF0044025897F8273187F8263145
:103B8000D7F81431D3E9002302F48043C7F8E030BA
:103B90000023C7F8E430D7E938120B46134355D059
:103BA000D7F81431D3F8B030B3F1A04F33D0B3F11C
:103BB000A04F2CD8B3F1804F2FD0B3F1804F26D82F
:103BC000B3F1405F2BD0B3F1405F20D8B3F1005F79
:103BD00012D0B3F1005F1AD8002B22D0B3F1805F6E
:103BE00015D1D7F8143108330121184601F0A6F990
:103BF000034687F8273115E0D7F81431283301211F
:103C0000184601F04DFA034687F827310AE00123F0
:103C100087F8273106E000BF04E000BF02E000BFE4
:103C200000E000BF97F82731002B0BD1A34B9B6D11
:103C300023F0E041D7F81431D3F8B0309F4A0B435A
:103C4000936503E097F8273187F82631D7F81431C8
:103C5000D3E9002302F40043C7F8D8300023C7F8A3
:103C6000DC30D7E936120B46134337D0D7F814317E
:103C70001B6FB3F1005F0ED0B3F1005F16D8002BBD
:103C800018D0B3F1805F11D18C4BDB6A8B4A43F4BF
:103C90000033D3620FE0D7F81431083301211846FE
:103CA00001F04CF9034687F8273104E0012387F837
:103CB000273100E000BF97F82731002B0AD17F4B56
:103CC0001B6D23F04051D7F814311B6F7B4A0B4317
:103CD000136503E097F8273187F82631D7F81431B8
:103CE000D3E9002302F08073C7F8D0300023C7F86F
:103CF000D430D7E934120B46134339D0D7F81431F6
:103D00009B6C032B1CD801A252F823F0493D0008FC
:103D10001D3D00082B3D0008493D0008674BDB6A4C
:103D2000664A43F40033D3620FE0D7F81431083306
:103D30000221184601F002F9034687F8273104E012
:103D4000012387F8273100E000BF97F82731002BC7
:103D50000AD15A4BDB6C23F00301D7F814319B6C6A
:103D6000564A0B43D36403E097F8273187F826318E
:103D7000D7F81431D3E9002302F48003C7F8C83020
:103D80000023C7F8CC30D7E932120B46134300F0BA
:103D90009F804B4B1B684A4A43F48073136001F0C9
:103DA000D5FCC7F820010BE001F0D0FC0246D7F8A3
:103DB0002031D31A642B03D9032387F8273105E078
:103DC0003F4B1B6803F48073002BEDD097F827312D
:103DD000002B79D1394B1A6FD7F81431D3F8B4309E
:103DE000534003F44073002B15D0344B1B6F23F466
:103DF0004073C7F81C31314B1B6F304A43F480339A
:103E000013672E4B1B6F2D4A23F4803313672B4A05
:103E1000D7F81C311367D7F81431D3F8B430B3F5A1
:103E2000807F18D101F092FCC7F820010DE001F06D
:103E30008DFC0246D7F82031D21A41F288339A42DB
:103E400003D9032387F8273105E01C4B1B6F03F0D0
:103E50000203002BEBD097F82731002B29D1D7F89C
:103E60001431D3F8B43003F44073B3F5407F0ED16E
:103E7000124B1B6923F47C51D7F81431D3F8B430BA
:103E80001A09104B13400D4A0B43136105E00B4B0D
:103E90001B690A4A23F47C531361084B196FD7F846
:103EA0001431D3F8B430C3F30B03044A0B43136744
:103EB0000EE097F8273187F8263109E000440258D0
:103EC00000480258CFFFFF0097F8273187F82631C6
:103ED000D7F81431D3E9002302F00103C7F8C0304A
:103EE0000023C7F8C430D7E930120B46134300F063
:103EF0008980D7F81431DB6F282B6BD801A252F8D8
:103F000023F000BFDD3F0008D53F0008D53F000883
:103F1000D53F0008D53F0008D53F0008D53F000831
:103F2000D53F0008A93F0008D53F0008D53F00084D
:103F3000D53F0008D53F0008D53F0008D53F000811
:103F4000D53F0008BF3F0008D53F0008D53F000817
:103F5000D53F0008D53F0008D53F0008D53F0008F1
:103F6000D53F0008DD3F0008D53F0008D53F0008D9
:103F7000D53F0008D53F0008D53F0008D53F0008D1
:103F8000D53F0008DD3F0008D53F0008D53F0008B9
:103F9000D53F0008D53F0008D53F0008D53F0008B1
:103FA000D53F0008DD3F0008D7F814310833012160
:103FB000184600F0C3FF034687F827310FE0D7F813
:103FC000143128330121184601F06AF8034687F8B6
:103FD000273104E0012387F8273100E000BF97F87C
:103FE0002731002B0AD1BF4B5B6D23F03801D7F886
:103FF0001431DB6FBB4A0B43536503E097F827315D
:1040000087F82631D7F81431D3E9002302F00203F0
:10401000C7F8B8300023C7F8BC30D7E92E120B46DA
:10402000134341D0D7F814319B6F052B24D801A23C
:1040300052F823F0814000084D400008634000081A
:10404000814000088140000881400008D7F8143101
:1040500008330121184600F071FF034687F8273125
:104060000FE0D7F8143128330121184601F018F871
:10407000034687F8273104E0012387F8273100E061
:1040800000BF97F82731002B0AD1964B5B6D23F0C8
:104090000701D7F814319B6F924A0B43536503E035
:1040A00097F8273187F82631D7F81431D3E9002360
:1040B00002F00403C7F8B0300023C7F8B430D7E9E2
:1040C0002C120B46134344D0D7F81431D3F8943054
:1040D000052B25D801A252F823F000BF2941000882
:1040E000F54000080B41000829410008294100085B
:1040F00029410008D7F8143108330121184600F08F
:104100001DFF034687F827310FE0D7F81431283315
:104110000121184600F0C4FF034687F8273104E068
:10412000012387F8273100E000BF97F82731002BE3
:104130000BD16C4B9B6D23F00701D7F81431D3F8EA
:104140009430684A0B43936503E097F8273187F86A
:104150002631D7F81431D3E9002302F02003C7F841
:10416000A8300023C7F8AC30D7E92A120B46134316
:1041700055D0D7F81431D3F89030B3F1A04F33D0E5
:10418000B3F1A04F2CD8B3F1804F2FD0B3F1804FB3
:1041900026D8B3F1405F2BD0B3F1405F20D8B3F104
:1041A000005F12D0B3F1005F1AD8002B22D0B3F118
:1041B000805F15D1D7F8143108330021184600F07C
:1041C000BDFE034687F8273115E0D7F814312833B0
:1041D0000221184600F064FF034687F827310AE001
:1041E000012387F8273106E000BF04E000BF02E0AA
:1041F00000BF00E000BF97F82731002B0BD1394BEF
:104200005B6D23F0E041D7F81431D3F89030354A94
:104210000B43536503E097F8273187F82631D7F829
:104220001431D3E9002302F04003C7F8A030002383
:10423000C7F8A430D7E928120B46134358D0D7F853
:104240001431D3F89C30B3F5A05F33D0B3F5A05F41
:104250002CD8B3F5805F2FD0B3F5805F26D8B3F5A7
:10426000406F2BD0B3F5406F20D8B3F5006F12D05C
:10427000B3F5006F1AD8002B22D0B3F5806F15D19B
:10428000D7F8143108330021184600F057FE0346D2
:1042900087F8273115E0D7F8143128330221184662
:1042A00000F0FEFE034687F827310AE0012387F875
:1042B000273106E000BF04E000BF02E000BF00E0DD
:1042C00000BF97F82731002B0ED1064B9B6D23F4CE
:1042D000E051D7F81431D3F89C30024A0B43936570
:1042E00006E000BF0044025897F8273187F82631CE
:1042F000D7F81431D3E9002302F08003C7F89830CF
:104300000023C7F89C30D7E926120B46134355D03B
:10431000D7F81431D3F8A030B3F5204F33D0B3F52C
:10432000204F2CD8B3F5004F2FD0B3F5004F26D82F
:10433000B3F5C04F2BD0B3F5C04F20D8B3F5804FA5
:1043400012D0B3F5804F1AD8002B22D0B3F5005FFE
:1043500015D1D7F8143108330021184600F0EEFDCE
:10436000034687F8273115E0D7F8143128330221A6
:10437000184600F095FE034687F827310AE001232E
:1043800087F8273106E000BF04E000BF02E000BF6D
:1043900000E000BF97F82731002B0BD1A14B9B6D9C
:1043A00023F46041D7F81431D3F8A0309D4A0B4371
:1043B000936503E097F8273187F82631D7F8143151
:1043C000D3E9002302F00803C7F890300023C7F8B0
:1043D0009430D7E924120B4613431ED0D7F814317A
:1043E000D3F88430B3F5805F0CD1D7F8143128337B
:1043F0000221184600F054FE0346002B02D0012390
:1044000087F82631874B5B6D23F44051D7F8143180
:10441000D3F88430834A0B435365D7F81431D3E97A
:10442000002302F01003C7F888300023C7F88C304F
:10443000D7E922120B4613431ED0D7F81431D3F814
:104440009830B3F5807F0CD1D7F81431283302218E
:10445000184600F025FE0346002B02D0012387F802
:104460002631704B9B6D23F44071D7F81431D3F88B
:1044700098306C4A0B439365D7F81431D3E9002385
:1044800002F40023C7F880300023C7F88430D7E94E
:1044900020120B4613433ED0D7F81431D3F8A43082
:1044A000B3F5003F22D0B3F5003F1BD8002B03D05B
:1044B000B3F5803F0BD015E0D7F814310833002155
:1044C000184600F03BFD034687F827310FE0D7F888
:1044D000143128330221184600F0E2FD034687F824
:1044E000273104E0012387F8273100E000BF97F867
:1044F0002731002B0BD14B4B9B6D23F44031D7F868
:104500001431D3F8A430474A0B43936503E097F87E
:10451000273187F82631D7F81431D3E9002302F484
:104520008023BB670023FB67D7E91E120B461343AA
:104530003BD0D7F81431D3F88830B3F5401F1FD0E3
:10454000B3F5401F18D8B3F5801F03D0B3F5001F93
:1045500007D011E0334BDB6A324A43F40033D362B5
:104560000FE0D7F8143128330121184600F098FDE8
:10457000034687F8273104E0012387F8273100E05C
:1045800000BF97F82731002B0BD1264B5B6D23F42E
:104590004011D7F81431D3F88830224A0B435365C1
:1045A00003E097F8273187F82631D7F81431D3E99B
:1045B000002302F480333B6700237B67D7E91C129A
:1045C0000B46134334D0D7F814311B6D002B03D0A6
:1045D000B3F5803F07D011E0124BDB6A114A43F478
:1045E0000033D3620EE0D7F81431083302211846A5
:1045F00000F0A4FC034687F8273103E0012387F885
:10460000273100BF97F82731002B0DD1054BDB6C0C
:1046100023F48031D7F814311B6D024A0B43D36465
:1046200006E000BF0044025897F8273187F826318A
:10463000D7F81431D3E9002302F00053BB660023FE
:10464000FB66D7E91A120B4613430CD0D7F8143186
:1046500028330221184600F023FD0346002B02D028
:10466000012387F82631D7F81431D3E9002302F467
:1046700000333B6600237B66D7E918120B461343D1
:1046800038D0D7F81431D3F88030B3F5407F18D044
:10469000B3F5407F11D8B3F5007F14D0B3F5007F98
:1046A0000BD8002B11D0B3F5807F06D1C34BDB6A4A
:1046B000C24A43F40033D36208E0012387F827316C
:1046C00004E000BF02E000BF00E000BF97F8273120
:1046D000002B0BD1B94B5B6D23F44071D7F814312B
:1046E000D3F88030B54A0B43536503E097F8273180
:1046F00087F82631D7F81431D3E9002302F4801368
:10470000BB650023FB65D7E916120B46134309D09E
:10471000AA4B1B6D23F00041D7F814315B6FA74AF9
:104720000B431365D7F81431D3E9002302F080530B
:104730003B6500237B65D7E914120B4613430AD06F
:104740009E4B1B6923F48041D7F81431D3F8B8305D
:104750009A4A0B431361D7F81431D3E9002302F4CA
:104760000013BB640023FB64D7E912120B4613430A
:1047700009D0924B1B6D23F08071D7F81431DB6E9A
:104780008E4A0B431365D7F81431D3E9002302F0A6
:1047900080433B6400237B64D7E910120B4613432C
:1047A0000ED0864B1B69854A23F400431361834B6B
:1047B0001969D7F81431D3F8BC30804A0B43136120
:1047C000D7F81431D3E9002302F00043BB63002380
:1047D000FB63D7E90E120B46134309D0774BDB6C12
:1047E00023F04051D7F814315B6D744A0B43D36406
:1047F000D7F81431D3E9002302F400033B6300230C
:104800007B63D7E90C120B4613430AD06B4B5B6DED
:1048100023F44001D7F81431D3F88C30674A0B43A6
:104820005365D7F81431D3E900230021B96203F0AE
:104830000103FB62D7E90A120B46134311D0D7F8E4
:10484000143108330021184600F078FB034687F83E
:10485000273197F82731002B03D097F8273187F8B5
:104860002631D7F81431D3E900230021396203F04F
:1048700002037B62D7E908120B46134311D0D7F825
:10488000143108330121184600F058FB034687F81D
:10489000273197F82731002B03D097F8273187F875
:1048A0002631D7F81431D3E900230021B96103F090
:1048B0000403FB61D7E906120B46134311D0D7F866
:1048C000143108330221184600F038FB034687F8FC
:1048D000273197F82731002B03D097F8273187F835
:1048E0002631D7F81431D3E900230021396103F0D0
:1048F00008037B61D7E904120B46134311D0D7F8A4
:10490000143128330021184600F0CAFB034687F80B
:10491000273197F82731002B03D097F8273187F8F4
:104920002631D7F81431D3E900230021B96003F010
:104930001003FB60D7E902120B46134311D0D7F8DE
:10494000143128330121184600F0AAFB034687F8EA
:10495000273197F82731002B03D097F8273187F8B4
:104960002631D7F81431D3E900230021396003F050
:1049700020037B60D7E900120B46134311D0D7F810
:10498000143128330221184600F08AFB034687F8C9
:10499000273197F82731002B03D097F8273187F874
:1049A000263197F82631002B01D1002300E00123A6
:1049B000184607F59477BD46BDE8B08F004402580D
:1049C00080B500AFFEF796FD0246064B1B6A1B0939
:1049D00003F007030449CB5C03F01F0322FA03F33F
:1049E000184680BD0044025888D5000880B489B0BC
:1049F00000AF7860A14B9B6A03F00303BB619F4B40
:104A00009B6A1B0B03F03F037B619C4BDB6A1B091A
:104A100003F001033B61994BDB6BDB08C3F30C0331
:104A20003A6902FB03F307EE903AF8EE677AC7EDB6
:104A3000037A7B69002B00F01181BB69022B00F027
:104A40008380BB69022B00F2A180BB69002B03D0DD
:104A5000BB69012B56D099E0884B1B6803F02003FB
:104A6000002B2DD0854B1B68DB0803F00303844A21
:104A700022FA03F3BB60BB6807EE903AF8EE676A70
:104A80007B6907EE903AF8EE677A86EEA77A7B4B61
:104A90009B6BC3F3080307EE903AF8EE676A97ED55
:104AA000036ADFED785AC6EE257A76EEA77AF7EE3E
:104AB000006A77EEA67A67EE277AC7ED077A87E075
:104AC0007B6907EE903AF8EE677ADFED6F6A86EE63
:104AD000A77A6A4B9B6BC3F3080307EE903AF8EE94
:104AE000676A97ED036ADFED675AC6EE257A76EEC0
:104AF000A77AF7EE006A77EEA67A67EE277AC7ED17
:104B0000077A65E07B6907EE903AF8EE677ADFEDA9
:104B10005F6A86EEA77A594B9B6BC3F3080307EED7
:104B2000903AF8EE676A97ED036ADFED565AC6EEE3
:104B3000257A76EEA77AF7EE006A77EEA67A67EE28
:104B4000277AC7ED077A43E07B6907EE903AF8EEE3
:104B5000677ADFED4F6A86EEA77A484B9B6BC3F30B
:104B6000080307EE903AF8EE676A97ED036ADFED07
:104B7000455AC6EE257A76EEA77AF7EE006A77EE0A
:104B8000A67A67EE277AC7ED077A21E07B6907EE00
:104B9000903AF8EE677ADFED3D6A86EEA77A374BFA
:104BA0009B6BC3F3080307EE903AF8EE676A97ED44
:104BB000036ADFED345AC6EE257A76EEA77AF7EE71
:104BC000006A77EEA67A67EE277AC7ED077A00BF0C
:104BD0002A4B9B6B5B0A03F07F0307EE903AF8EEDB
:104BE000677AB7EE007A37EE877AD7ED076AC6EEB6
:104BF000877AFCEEE77A17EE902A7B681A601F4BE3
:104C00009B6B1B0C03F07F0307EE903AF8EE677A7C
:104C1000B7EE007A37EE877AD7ED076AC6EE877A65
:104C2000FCEEE77A17EE902A7B685A60134B9B6B79
:104C30001B0E03F07F0307EE903AF8EE677AB7EEAB
:104C4000007A37EE877AD7ED076AC6EE877AFCEEF0
:104C5000E77A17EE902A7B689A6008E07B6800226A
:104C60001A607B6800225A607B6800229A6000BF4D
:104C70002437BD465DF8047B704700BF00440258EE
:104C80000090D003000000460024744C0024744AB5
:104C900020BCBE4B80B489B000AF7860A14B9B6A4A
:104CA00003F00303BB619F4B9B6A1B0D03F03F03A3
:104CB0007B619C4BDB6A1B0A03F001033B61994B50
:104CC0005B6CDB08C3F30C033A6902FB03F307EEEA
:104CD000903AF8EE677AC7ED037A7B69002B00F013
:104CE0001181BB69022B00F08380BB69022B00F2AB
:104CF000A180BB69002B03D0BB69012B56D099E082
:104D0000884B1B6803F02003002B2DD0854B1B68BC
:104D1000DB0803F00303844A22FA03F3BB60BB6899
:104D200007EE903AF8EE676A7B6907EE903AF8EE84
:104D3000677A86EEA77A7B4B1B6CC3F3080307EEFA
:104D4000903AF8EE676A97ED036ADFED785AC6EE9F
:104D5000257A76EEA77AF7EE006A77EEA67A67EE06
:104D6000277AC7ED077A87E07B6907EE903AF8EE7D
:104D7000677ADFED6F6A86EEA77A6A4B1B6CC3F326
:104D8000080307EE903AF8EE676A97ED036ADFEDE5
:104D9000675AC6EE257A76EEA77AF7EE006A77EEC6
:104DA000A67A67EE277AC7ED077A65E07B6907EE9A
:104DB000903AF8EE677ADFED5F6A86EEA77A594B94
:104DC0001B6CC3F3080307EE903AF8EE676A97EDA1
:104DD000036ADFED565AC6EE257A76EEA77AF7EE2D
:104DE000006A77EEA67A67EE277AC7ED077A43E086
:104DF0007B6907EE903AF8EE677ADFED4F6A86EE50
:104E0000A77A484B1B6CC3F3080307EE903AF8EE01
:104E1000676A97ED036ADFED455AC6EE257A76EEAE
:104E2000A77AF7EE006A77EEA67A67EE277AC7EDE3
:104E3000077A21E07B6907EE903AF8EE677ADFEDBA
:104E40003D6A86EEA77A374B1B6CC3F3080307EE67
:104E5000903AF8EE676A97ED036ADFED345AC6EED2
:104E6000257A76EEA77AF7EE006A77EEA67A67EEF5
:104E7000277AC7ED077A00BF2A4B1B6C5B0A03F049
:104E80007F0307EE903AF8EE677AB7EE007A37EED6
:104E9000877AD7ED076AC6EE877AFCEEE77A17EED7
:104EA000902A7B681A601F4B1B6C1B0C03F07F035E
:104EB00007EE903AF8EE677AB7EE007A37EE877A27
:104EC000D7ED076AC6EE877AFCEEE77A17EE902AEE
:104ED0007B685A60134B1B6C1B0E03F07F0307EEBD
:104EE000903AF8EE677AB7EE007A37EE877AD7ED28
:104EF000076AC6EE877AFCEEE77A17EE902A7B689F
:104F00009A6008E07B6800221A607B6800225A6081
:104F10007B6800229A6000BF2437BD465DF8047BA1
:104F2000704700BF004402580090D00300000046C4
:104F30000024744C0024744A20BCBE4B80B584B05D
:104F400000AF786039600023FB73534B9B6A03F01A
:104F50000303032B01D1012399E04F4B1B684E4AF9
:104F600023F08063136000F0F1FBB86008E000F00C
:104F7000EDFB0246BB68D31A022B01D9032386E05E
:104F8000454B1B6803F00063002BF0D1424B9B6A3A
:104F900023F47C327B681B681B033F4913438B62FD
:104FA0007B685B68013BC3F308027B689B68013B3D
:104FB0005B029BB21A437B68DB68013B1B0403F472
:104FC000FE031A437B681B69013B1B0603F0FE438B
:104FD000314913438B63304BDB6A23F0C0027B689B
:104FE0005B692D491343CB622B4BDB6A23F0200214
:104FF0007B689B6928491343CB62274BDB6A264AAF
:1050000023F01003D362244BDA6B244B13407A68ED
:10501000D269D20020491343CB631F4BDB6A1E4A7F
:1050200043F01003D3623B68002B06D11A4BDB6AB6
:10503000194A43F40023D3620FE03B68012B06D1E9
:10504000154BDB6A144A43F48013D36205E0124B1C
:10505000DB6A114A43F40013D3620F4B1B680E4AFC
:1050600043F08063136000F071FBB86008E000F06B
:105070006DFB0246BB68D31A022B01D9032306E05D
:10508000054B1B6803F00063002BF0D0FB7B184638
:105090001037BD4680BD00BF004402580700FFFF27
:1050A00080B584B000AF786039600023FB73534B48
:1050B0009B6A03F00303032B01D1012399E04F4BBB
:1050C0001B684E4A23F08053136000F03FFBB8602A
:1050D00008E000F03BFB0246BB68D31A022B01D963
:1050E000032386E0454B1B6803F00053002BF0D1EF
:1050F000424B9B6A23F07C727B681B681B053F490F
:1051000013438B627B685B68013BC3F308027B68D7
:105110009B68013B5B029BB21A437B68DB68013BE7
:105120001B0403F4FE031A437B681B69013B1B0647
:1051300003F0FE43314913430B64304BDB6A23F425
:1051400040627B685B692D491343CB622B4BDB6A62
:1051500023F400727B689B6928491343CB62274B79
:10516000DB6A264A23F48073D362244B5A6C244BA7
:1051700013407A68D269D200204913434B641F4B15
:10518000DB6A1E4A43F48073D3623B68002B06D16E
:105190001A4BDB6A194A43F48003D3620FE03B6881
:1051A000012B06D1154BDB6A144A43F40003D3628A
:1051B00005E0124BDB6A114A43F08073D3620F4B58
:1051C0001B680E4A43F08053136000F0BFFAB860CA
:1051D00008E000F0BBFA0246BB68D31A022B01D9E3
:1051E000032306E0054B1B6803F00053002BF0D0AF
:1051F000FB7B18461037BD4680BD00BF00440258F7
:105200000700FFFF80B489B000AF786039600023E9
:10521000FB61894B7B6194E13B681A680121FB6962
:1052200001FA03F313403B613B69002B00F08681D8
:105230003B685B6803F00303012B05D03B685B68A8
:1052400003F00303022B30D17B689B68BB61FB69D1
:105250005B00032202FA03F3DB43BA691340BB612C
:105260003B68DA68FB695B0002FA03F3BA6913432F
:10527000BB617B68BA699A607B685B68BB6101222D
:10528000FB6902FA03F3DB43BA691340BB613B6875
:105290005B681B0903F00102FB6902FA03F3BA69B8
:1052A0001343BB617B68BA695A603B685B6803F073
:1052B0000303032B17D07B68DB68BB61FB695B00D2
:1052C000032202FA03F3DB43BA691340BB613B6874
:1052D0009A68FB695B0002FA03F3BA691343BB6186
:1052E0007B68BA69DA603B685B6803F00303022BF2
:1052F00023D1FB69DA087B68083253F82230BB619E
:10530000FB6903F007039B000F2202FA03F3DB4360
:10531000BA691340BB613B681A69FB6903F0070374
:105320009B0002FA03F3BA691343BB61FB69DA0815
:105330007B680832B96943F822107B681B68BB613F
:10534000FB695B00032202FA03F3DB43BA691340F3
:10535000BB613B685B6803F00302FB695B0002FA18
:1053600003F3BA691343BB617B68BA691A603B688F
:105370005B6803F44033002B00F0E0802F4BD3F840
:10538000F4302E4A43F00203C2F8F4302B4BD3F82A
:10539000F43003F00203FB60FB68294AFB699B08B9
:1053A000023352F82330BB61FB6903F003039B0017
:1053B0000F2202FA03F3DB43BA691340BB617B6837
:1053C000204A934252D07B681F4A934231D07B6877
:1053D0001E4A93422BD07B681D4A934225D07B689E
:1053E0001C4A93421FD07B681B4A934219D07B68AA
:1053F0001A4A934213D07B68194A93420DD07B68B6
:10540000184A934207D07B68174A934201D1092377
:105410002DE00A232BE0082329E0072327E00623B9
:1054200025E0052323E0042321E003231FE00223DA
:105430001DE001231BE000BF80000058004402581B
:1054400000040058000002580004025800080258E6
:10545000000C02580010025800140258001802589C
:10546000001C025800200258002402580023FA6948
:1054700002F0030292009340BA691343BB613849BA
:10548000FB699B080233BA6941F823204FF0B0430F
:105490001B68BB613B69DB43BA691340BB613B6876
:1054A0005B6803F48013002B03D0BA693B69134394
:1054B000BB614FF0B042BB6913604FF0B0435B6813
:1054C000BB613B69DB43BA691340BB613B685B6806
:1054D00003F40013002B03D0BA693B691343BB618B
:1054E0004FF0B042BB6953607B695B68BB613B694D
:1054F000DB43BA691340BB613B685B6803F400336C
:10550000002B03D0BA693B691343BB617B69BA695D
:105510005A607B691B68BB613B69DB43BA69134016
:10552000BB613B685B6803F48033002B03D0BA692E
:105530003B691343BB617B69BA691A60FB6901333C
:10554000FB613B681A68FB6922FA03F3002B7FF4C6
:1055500063AE00BF00BF2437BD465DF8047B7047D3
:105560000004005880B483B000AF78600B467B80A5
:1055700013467B707B78002B03D07A887B689A6116
:1055800003E07B881A047B689A6100BF0C37BD4634
:105590005DF8047B704780B582B000AF0346FB80A6
:1055A0004FF0B043D3F88820FB881340002B08D07D
:1055B0004FF0B042FB88C2F88830FB881846FCF7F1
:1055C00007FB00BF0837BD4680BD000080B584B032
:1055D00000AF7860194BDB6803F00403042B0AD09A
:1055E000164BDB6803F007037A689A4201D0012367
:1055F0001FE000231DE0114BDB6823F007020F4979
:105600007B681343CB6000F0A1F8F86009E000F07C
:105610009DF80246FB68D31AB3F57A7F01D90123BE
:1056200007E0064B5B6803F40053B3F5005FEED16F
:10563000002318461037BD4680BD00BF0048025801
:1056400080B582B000AF0320FCF7DEFDFDF7D8FD8A
:105650000246154B9B691B0A03F00F031349CB5CF1
:1056600003F01F0322FA03F37B600F4B9B6903F0E7
:105670000F030E4AD35C03F01F037A6822FA03F388
:105680000B4A13600B4A7B6813600F2000F014F87C
:105690000346002B01D0012302E0FCF793FB00231B
:1056A00018460837BD4680BD0044025888D500081A
:1056B000740500207005002080B582B000AF7860CE
:1056C000154B1B78002B01D1012321E0134B1A68E5
:1056D000114B1B7819464FF47A73B3FBF1F3B2FB0D
:1056E000F3F31846FCF7C3FD0346002B01D001235A
:1056F0000EE07B680F2B0AD8002279684FF0FF304C
:10570000FCF78DFD064A7B681360002300E001234F
:1057100018460837BD4680BD6C0500207005002086
:105720006805002080B400AF064B1B781A46064B74
:105730001B681344044A136000BFBD465DF8047B38
:10574000704700BF6C0500208C0B002080B400AFB8
:10575000034B1B681846BD465DF8047B704700BFCD
:105760008C0B002080B584B000AF7860FFF7EEFFAF
:10577000B8607B68FB60FB68B3F1FF3F05D00A4B64
:105780001B781A46FB681344FB6000BFFFF7DEFF7F
:105790000246BB68D31AFA689A42F7D800BF00BF26
:1057A0001037BD4680BD00BF6C05002080B400AF3F
:1057B000034B1B681B0C1846BD465DF8047B704705
:1057C0000010005C80B584B000AF78607B68002B6F
:1057D00001D101230FE17B6800229A627B681B687C
:1057E000874A93420FD07B681B68864A93420AD04F
:1057F0007B681B68844A934205D07B68DB680F2B6B
:1058000001D90123F7E0786800F008FDF8607B68B3
:105810001B687B4A93420CD07B681B68794A934291
:1058200007D07B681B68784A934202D0FB68082B3C
:1058300011D87B681B68724A934209D07B681B6849
:10584000704A934204D07B681B686F4A934204D12C
:10585000FB68102B01D90123CDE07B6893F88130E0
:10586000DBB2002B06D17B68002283F880207868A9
:10587000FCF72AFB7B68022283F881207B681B6887
:105880001A687B681B6822F001021A607B681B683B
:105890009B6803F4F813BB607B689B69B3F1806F6E
:1058A00019D17B685B68B3F5800F03D17B689B6B74
:1058B000002B08D07B685B68002B0CD17B689B6B4E
:1058C000B3F1805F07D17B681B681A687B681B682F
:1058D00042F480521A607B685B6803F48003002BFB
:1058E0000FD07B68DB68062B0BD97B681B681B68B5
:1058F00023F480717B681A6D7B681B680A431A6009
:1059000007E07B681B681A687B681B6822F480725A
:105910001A607B68DA697B689B6A1A43BB681A4322
:105920007B68DB6B42EA03017B68DA687B681B6893
:105930000A439A607B685A6B7B685B6A1A437B6890
:105940009B6B1A437B689B691A437B681B691A43EC
:105950007B685B691A437B681B6A1A437B685B68D8
:105960001A437B68DB6C1A437B689B681A437B682D
:105970009B6C42EA03017B689A6D7B681B680A4353
:10598000DA607B685B68002B13D17B681B689B68BF
:1059900023F4C0527B681B6842F400629A607B6803
:1059A0001B689B6823F4C0627B681B6842F48062BA
:1059B0009A607B681B681A6D7B681B6822F0010285
:1059C0001A657B685B6803F48003002B0AD07B6850
:1059D0001B68DB6823F000417B685A6D7B681B689D
:1059E0000A43DA607B680022C3F884207B680122C6
:1059F00083F88120002318461037BD4680BD00BFC4
:105A00000030014000380040003C004080B58EB0BE
:105A100002AFF860B9607A607B80FB681B68203356
:105A20007B62FB681B6830333B62FB68DB6B5B09A6
:105A30009BB20133FB83FFF789FEB8617B887B85CE
:105A40007B883B85FB6893F88130DBB2012B01D06A
:105A5000022310E3BB68002B05D07B68002B02D02B
:105A60007B88002B01D1012305E3FB6893F880308C
:105A7000012B01D10223FEE2FB68012283F8802082
:105A8000FB68052283F88120FB680022C3F884208C
:105A9000FB687A685A66FB687A88A3F86A20FB6814
:105AA0007A88A3F86820FB68BA68DA65FB687A88A8
:105AB000A3F86220FB687A88A3F86020FB680022C4
:105AC0001A67FB6800225A67FB681B68DA68FB6884
:105AD0001B6822F4C022DA60FB681B68704A93429C
:105AE00009D0FB681B686F4A934204D0FB681B68AF
:105AF0006D4A934202D11023FB6201E00823FB624E
